S020000066697273745F73746167655F62746C5F6566723332786731332E73333754
S3150FE100000A4880F308880A4800470000000000000C
S3150FE1001000000000000000000000000000000000EA
S3150FE1002000000000000000005806E10F90040020D8
S3150FE100304106E10F8F49904A01E021B1491E13694B
S3150FE10040DB07FAD411B96FF0020070475060012057
S3150FE100501060106910F0060F09D0410702D54FF075
S3150FE10060FF307047800702D56FF00100704700201F
S3150FE1007070472DE9F0410D460026002D04464AD082
S3150FE100807E48DFF8F08101687B4F0FF2FC10CAB9A9
S3150FE100907B4A91423CBF40F2C91100F00FF90020B3
S3150FE100A0A84238D254F8041BF960401C0821396084
S3150FE100B0414601E069B3491E3A69D207FAD40029EC
S3150FE100C0EED126E06F4A91423CBF40F2052100F0A6
S3150FE100D0F5F8EFF3108172B600200EE03A6902F0FF
S3150FE100E01902102A08BF3A603A691207F6D554F891
S3150FE100F0042BFA60401C10223A60A842F4D301B9EE
S3150FE1010062B6414601E021B1491E3869C007FAD40A
S3150FE1011009B96FF002063046BDE8F0812DE9F84FD7
S3150FE101208146002719F00300884615469B460FF2D4
S3150FE10130581603D04FF4207100F08DF815F0030F28
S3150FE1014003D040F2852100F086F8484C2068400341
S3150FE1015003D540F2892100F07EF8206810F4403F84
S3150FE1016003D040F28A2100F076F8414C206840F046
S3150FE101700100AD08206003D140F2932100F06BF846
S3150FE10180BA4602E0B24408EB8608AA4517D209EB54
S3150FE101908A063046FFF74EFF070015D1C6F30A0070
S3150FE101A0C0F500608608A5EB0A00B04238BF0646E7
S3150FE101B05A4631464046FFF75CFF0700E2D020681A
S3150FE101C04008400020603846BDE8F28FF8B5044696
S3150FE101D06005284D0FF2B00603D04FF4417100F0E0
S3150FE101E03AF8224F3868400303D540F2073100F061
S3150FE101F032F8386810F4403F03D04FF4427100F003
S3150FE102002AF81B48016841F0010101608460012170
S3150FE1021041604169490704D500F020F84FF0FF30FE
S3150FE10220F2BD4169890704D500F018F86FF00100B6
S3150FE10230F2BD0221416001E025B16D1E4169C90799
S3150FE10240FAD425B900F00AF86FF00200F2BD00F01A
S3150FE1025005F80020F2BD304600F030B801684908D4
S3150FE10260490001607047002358E7000004300E4053
S3150FE1027008000E40809698000C000E408800002082
S3150FE1028040420F00809FD5005A3A5C5573657273F1
S3150FE102905C61736D656C6C62795C73757065725CCC
S3150FE102A0706C6174666F726D5C656D6C69625C73BF
S3150FE102B072635C656D5F6D73632E6300FEE700002D
S3150FE102C0084841F6713181630168490849000160C7
S3150FE102D070470448016849084900016000218163BC
S3150FE102E07047000008000E4010B50446FFF7E8FF1F
S3150FE102F02046FFF76BFF0446FFF7EBFF601E8041D9
S3150FE10300C00F10BD10B58408800782B005D508046B
S3150FE1031040F47F4040F0FF0003E041F07F4040F4BE
S3150FE103207F000090FFF7CCFF04226946A000FFF79C
S3150FE103309AFF0446FFF7CDFF204616BD2DE9F041A2
S3150FE1034004460E46154604F0010005F00101084387
S3150FE1035027D135B3A00708D536F8021B2046FFF79C
S3150FE10360D1FFF0B9A41CAD1E19D0AF08FFF7A8FF56
S3150FE10370BF003A4631462046FFF775FF8046FFF745
S3150FE10380A8FF3C197808B8F1000F06EB400608D133
S3150FE10390E81B04D031882046FFF7B4FF08B90120E6
S3150FE103A000E00020BDE8F08170B5244801680869D6
S3150FE103B0CC68826AA2421DD304F560518A4219D2F2
S3150FE103C0111B45181E4A2968914213D1E9681D4E42
S3150FE103D04FF0FF3200F052F8B0420BD11A480068E5
S3150FE103E0AA688168914203D300F030F8B04201D098
S3150FE103F0012070BD002070BDF8B510480068056991
S3150FE10400C468A86A001B2E18274604E03846FFF792
S3150FE104106BFF07F50067F26810198742F6D3294695
S3150FE104202046FFF78BFF0848006800F00FF80549F3
S3150FE10430884201D00020F2BD0120F2BD2800E10F74
S3150FE1044007B0CD5EE320BBDE2808E10FC1684FF0B0
S3150FE10450FF32204600F012B80A0A484000F0FF00CA
S3150FE1046008214308C00746BF034858401846491EAE
S3150FE10470F7D15040704700002083B8ED70B50446C0
S3150FE104800D461046002604E00146A05DFFF7E4FFA6
S3150FE10490761CAE42F8D370BD18481949006808605A
S3150FE104A040211848C16001684903FCD4FFF7A4FF56
S3150FE104B00028FBD040F2022000F02CF800BF80B5F7
S3150FE104C000F048F810490968B1F5803F0AD040F2CB
S3150FE104D00921884218BFB0F5007F03D1FFF764FF0A
S3150FE104E000B101BD09490A480860016881F308882E
S3150FE104F081F3098840688047FEE700008400002009
S3150FE105008800002004300E4004500E4008ED00E054
S3150FE105100008E10F4FF0005108804FF20F004880BD
S3150FE105200948016821F4E06141F480610160BFF39C
S3150FE105304F8F0648064A016801F4E06111430160F5
S3150FE10540BFF34F8F00BFFDE700500E400CED00E00B
S3150FE105500400FA054FF000504FF20F024188914225
S3150FE1056001D100887047002904BF0088012802D114
S3150FE1057040F2022070474FF40070704710B450F804
S3150FE10580041B79B10268436802440830DC0744BFB3
S3150FE10590A9F10104E31852F8044B43F8044B091F80
S3150FE105A0F9D1ECE710BC704710B50749794418311A
S3150FE105B0064C7C44163404E00A68081D114488474A
S3150FE105C00146A142F8D110BD2C0000003C0000000D
S3150FE105D04EF68851CEF20001086840F470000860CB
S3150FE105E0BFF34F8FBFF36F8F4FF00070E1EE100A3D
S3150FE105F07047000089FFFFFF0C000000900000002C
S3150FE1060080000020000000000120C046002801D034
S3150FE10610FFF7CAFF0020AFF30080FFF73DFF00F0C1
S3150FE1062000F800F001B800000746384600F002F87E
S3150FE10630FBE700002021090326311820ABBEF9E7BD
S3150FE106400248804702488047024800476D06E10F9E
S3150FE10650BF04E10F8106E10FAD1007B00100000005
S3150FE10660000000010008E10F008000000348016867
S3150FE1067041F47001016070470000000088ED00E071
S3150FE10680AFF30080FFF7A4FFFFF7BEFF00F04902CB
S30D0FE10690C0EA210100000000A0
S7050FE1068183
