S020000066697273745F73746167655F62746C5F6566723332786731322E73333755
S3150FE100000A4880F308880A4800470000000000000C
S3150FE1001000000000000000000000000000000000EA
S3150FE1002000000000000000006805E10F90040020C9
S3150FE100305105E10F6449654A01E021B1491E136992
S3150FE10040DB07FAD401B9B0E0506001201060106906
S3150FE1005010F0060F05D0410700D5A9E0800700D5BE
S3150FE10060A9E000207047F0B513460022002936D0EB
S3150FE10070554C564D8BB98B4231D250F8046BEE602D
S3150FE100805B1C08262E60264601E036B3761E2F69E5
S3150FE10090FF07FAD4002EEED11FE0EFF3108672B60A
S3150FE100A000230EE02F6907F01907102F08BF2F6005
S3150FE100B02F693F07F6D550F8047BEF605B1C1027DD
S3150FE100C02F608B42F4D306B962B6264601E026B11C
S3150FE100D0761E2869C007FAD40EB96FF002021046F0
S3150FE100E0F0BD2DE9F0479A46354B364F1C681B6834
S3150FE100F03B688046002043F001033B60950881464B
S3150FE101000C4602E0B14404EB8604A94517D208EB8D
S3150FE1011089063046FFF78EFF010014D1C6F30A00B8
S3150FE10120C0F500608608A5EB0900B04238BF064668
S3150FE10130524631462046FFF796FF0100E2D0396875
S3150FE10140490849003960BDE8F0871D491E4A0B6829
S3150FE1015009681C490B6843F001030B6088600120B5
S3150FE1016048604869400704D50868400840000860C0
S3150FE101701EE04869800704D508684008400008601A
S3150FE1018019E00220486001E022B1521E4869C0071A
S3150FE10190FAD422B9086840084000086005E008680B
S3150FE101A0400840000860002070476FF0020070477A
S3150FE101B04FF0FF3070476FF001007047002390E773
S3150FE101C004300E4008000E40809698000C000E4059
S3150FE101D0084841F6713181630168490849000160B8
S3150FE101E070470448016849084900016000218163AD
S3150FE101F07047000008000E4010B50446FFF7E8FF10
S3150FE102002046FFF7A2FF0446FFF7EBFF601E804192
S3150FE10210C00F10BD10B58408800782B005D508045C
S3150FE1022040F47F4040F0FF0003E041F07F4040F4AF
S3150FE102307F000090FFF7CCFF04226946A000FFF78D
S3150FE10240BDFF0446FFF7CDFF204616BD2DE9F04170
S3150FE1025004460E46154604F0010005F00101084378
S3150FE1026027D135B3A00708D536F8021B2046FFF78D
S3150FE10270D1FFF0B9A41CAD1E19D0AF08FFF7A8FF47
S3150FE10280BF003A4631462046FFF798FF8046FFF713
S3150FE10290A8FF3C197808B8F1000F06EB400608D124
S3150FE102A0E81B04D031882046FFF7B4FF08B90120D7
S3150FE102B000E00020BDE8F08170B5244801680869C7
S3150FE102C0CC68826AA2421DD304F510418A4219D243
S3150FE102D0111B45181E4A2968914213D1E9681D4E33
S3150FE102E04FF0FF3200F052F8B0420BD11A480068D6
S3150FE102F0AA688168914203D300F030F8B04201D089
S3150FE10300012070BD002070BDF8B510480068056981
S3150FE10310C468A86A001B2E18274604E03846FFF783
S3150FE103206BFF07F50067F26810198742F6D3294686
S3150FE103302046FFF78BFF0848006800F00FF80549E4
S3150FE10340884201D00020F2BD0120F2BD2800E10F65
S3150FE1035007B0CD5EE320BBDE2808E10FC1684FF0A1
S3150FE10360FF32204600F012B80A0A484000F0FF00BB
S3150FE1037008214308C00746BF034858401846491E9F
S3150FE10380F7D15040704700002083B8ED70B50446B1
S3150FE103900D461046002604E00146A05DFFF7E4FF97
S3150FE103A0761CAE42F8D370BD18481949006808604B
S3150FE103B040211848C16001684903FCD4FFF7A4FF47
S3150FE103C00028FBD040F2022000F02CF800BF80B5E8
S3150FE103D000F048F810490968B1F5803F0AD040F2BC
S3150FE103E00921884218BFB0F5007F03D1FFF764FFFB
S3150FE103F000B101BD09490A480860016881F308881F
S3150FE1040081F3098840688047FEE7000084000020F9
S3150FE104108800002004300E4004500E4008ED00E045
S3150FE104200008E10F4FF0005108804FF20F004880AE
S3150FE104300948016821F4E06141F480610160BFF38D
S3150FE104404F8F0648064A016801F4E06111430160E6
S3150FE10450BFF34F8F00BFFDE700500E400CED00E0FC
S3150FE104600400FA054FF000504FF20F024188914216
S3150FE1047001D100887047002904BF0088012802D105
S3150FE1048040F2022070474FF40070704710B450F8F5
S3150FE10490041B79B10268436802440830DC0744BFA4
S3150FE104A0A9F10104E31852F8044B43F8044B091F71
S3150FE104B0F9D1ECE710BC704710B50749794418310B
S3150FE104C0064C7C44163404E00A68081D114488473B
S3150FE104D00146A142F8D110BD2C0000003C000000FE
S3150FE104E04EF68851CEF20001086840F470000860BC
S3150FE104F0BFF34F8FBFF36F8F4FF00070E1EE100A2E
S3150FE105007047000089FFFFFF0C000000900000001C
S3150FE1051080000020000000000120C046002801D025
S3150FE10520FFF7CAFF0020AFF30080FFF73DFF00F0B2
S3150FE1053000F800F001B800000746384600F002F86F
S3150FE10540FBE700002021090326311820ABBEF9E7AE
S3150FE105500248804702488047024800477D05E10F80
S3150FE10560CF03E10F9105E10FAD1007B001000000D8
S3150FE10570000000010008E10F008000000348016858
S3150FE1058041F47001016070470000000088ED00E062
S3150FE10590AFF30080FFF7A4FFFFF7BEFF00F04902BC
S30D0FE105A0C0EA21010000000091
S7050FE1059174
