S01F000066697273745F73746167655F62746C5F65667233327867312E73333788
S11300009004002021060000790600007D0600000F
S1130010810600008506000089060000000000003B
S11300200000000000000000380600008D060000FB
S113003091060000000000009506000099060000EB
S113004089498A4A01E021B1491E1369DB07FAD4C0
S113005011B96FF002007047506001201060106900
S113006010F0060F09D0410702D54FF0FF3070475A
S1130070800702D56FF001007047002070472DE91A
S1130080F0410D460026002D04464AD07848DFF89A
S1130090D8810168754F0FF2E410CAB9754A9142CC
S11300A03CBF40F2C91100F003F90020A84238D245
S11300B054F8041BF960401C08213960414601E0F2
S11300C069B3491E3A69D207FAD40029EED126E071
S11300D0694A91423CBF40F2052100F0E9F8EFF390
S11300E0108172B600200EE03A6902F01902102A5B
S11300F008BF3A603A691207F6D554F8042BFA603F
S1130100401C10223A60A842F4D301B962B64146B9
S113011001E021B1491E3869C007FAD409B96FF06A
S113012002063046BDE8F0812DE9F84F044614F08C
S113013003000D46174698464FF0000B0FF23C198A
S113014004D04FF42071484600F0B2F817F0030FC2
S113015004D040F28521484600F0AAF8414E3068A8
S113016040F001003060B808009004D140F29321BF
S1130170484600F09DF8D946AA4602E0B9440AEB85
S1130180870A0098814519D204EB89073846FFF79E
S113019057FF010027D1C7F30A00C0F500608708A4
S11301A00098A0EB0900B84238BF074642463946DA
S11301B05046FFF764FF5FEA000BDFD02068296830
S11301C088420BD02046FFF73BFF5FEA000B05D1C6
S11301D0424601212846FFF752FF83463068400813
S11301E0400030605846BDE8F28F38B505466805D2
S11301F01D4C05D04FF441710FF2800000F058F807
S11302001848016841F001010160856001214160E5
S11302104169490704D500F01DF84FF0FF3032BDA5
S11302204169890704D500F015F86FF0010032BD6B
S11302300221416001E024B1641E4169C907FAD476
S113024024B900F007F86FF0020032BD00F002F8A4
S1130250002032BD0168490849000160704700234D
S113026062E7000008000E40809698000C000E40E3
S11302708C00002040420F00809FD5005A3A5C5504
S1130280736572735C61736D656C6C62795C7375B4
S11302907065725C706C6174666F726D5C656D6CB8
S11302A069625C7372635C656D5F6D73632E63007A
S11302B0FEE70000084841F671318163016849088E
S11302C04900016070470448016849084900016019
S11302D0002181637047000008000E4010B50446F9
S11302E0FFF7E8FF2046FFF780FF0446FFF7EBFF28
S11302F0601E8041C00F10BD10B58408800782B015
S113030005D5080440F47F4040F0FF0003E041F0CD
S11303107F4040F47F000090FFF7CCFF0422694641
S1130320A000FFF79CFF0446FFF7CDFF204616BD53
S11303302DE9F04104460E46154604F0010005F08F
S11303400101084327D135B3A00708D536F8021BAD
S11303502046FFF7D1FFF0B9A41CAD1E19D0AF0899
S1130360FFF7A8FFBF003A4631462046FFF777FF64
S11303708046FFF7A8FF3C197808B8F1000F06EB98
S1130380400608D1E81B04D031882046FFF7B4FFAB
S113039008B9012000E00020BDE8F08170B52820F4
S11303A001680869CC68826AA24222D304F56051CC
S11303B08A421ED2111B4518224A2968914218D13B
S11303C0E968214E4FF0FF3200F052F8B04210D1EC
S11303D040F628000068AA688168914207D3C16882
S11303E04FF0FF32204600F043F8B04201D0012024
S11303F070BD002070BDF8B5282000680569C46888
S1130400A86A001B2E18274604E03846FFF766FF4B
S113041007F50067F26810198742F6D3294620468B
S1130420FFF786FF40F628004FF0FF320068C168EE
S1130430204600F01DF80449884201D00020F2BD96
S11304400120F2BD07B0CD5EE320BBDE0A0A4840BE
S113045000F0FF0008214308C00746BF0348584086
S11304601846491EF7D15040704700002083B8ED6C
S113047070B504460D461046002604E00146A05D12
S1130480FFF7E4FF761CAE42F8D370BD1548164959
S113049000680860FFF7AFFF0028FBD040F202209D
S11304A000F028F800BF80B500F044F80F4909684F
S11304B0B1F5803F0AD040F20921884218BFB0F557
S11304C0007F03D1FFF76AFF00B101BD08494FF473
S11304D000600860016881F3088881F30988406836
S11304E08047FEE7880000208C00002004500E4066
S11304F008ED00E04FF0005108804FF20F004880F3
S11305000948016821F4E06141F480610160BFF3AE
S11305104F8F0648064A016801F4E0611143016007
S1130520BFF34F8F00BFFDE700500E400CED00E01D
S11305300400FA054FF000504FF20F024188914237
S113054001D100887047002904BF0088012802D126
S113055040F2022070474FF40070704710B450F816
S1130560041B79B10268436802440830DC0744BFC5
S1130570A9F10104E31852F8044B43F8044B091F92
S1130580F9D1ECE710BC704710B50749794418312C
S1130590064C7C44163404E00A68081D114488475C
S11305A00146A142F8D110BD2C0000003C0000001F
S11305B04EF68851CEF20001086840F470000860DD
S11305C0BFF34F8FBFF36F8F4FF00070E1EE100A4F
S11305D07047000089FFFFFF10000000800000004A
S11305E080000020000000000120C046002801D047
S11305F0FFF7CAFF0020AFF30080FFF747FF00F0CA
S113060000F800F001B800000746384600F002F890
S1130610FBE700002021090326311820ABBEF9E7CF
S11306200248804702488047024800474D060000C0
S1130630A70400006D060000AD1007B00100000023
S1130640000000010008000000800000024801686A
S113065041F470010160704788ED00E000F0490248
S113066000800000C0EA210100000000AFF3008018
S1130670FFF79EFFFFF7B8FFFFF7FEBFFFF7FEBFD0
S1130680FFF7FEBFFFF7FEBFFFF7FEBFFFF7FEBF9A
S10F0690FFF7FEBFFFF7FEBFFFF7FEBF41
S903066D89
