S0110000626F6F746C6F616465722E733337B8
S3150FE1080090100020813BE10FAB0CE10FD50CE10F0E
S3150FE10810CB18E10FA71BE10FAF1BE10F00000000A3
S3150FE1082000000000000000004008E10FFB26E10F89
S3150FE10830AB27E10F000000001328E10F6736E10F48
S3150FE1084007B0CD5E0100000000000001E8330000B3
S3150FE108500000000000001000F0000100890EE10F1A
S3150FE108608D0EE10FF938E10F1926E10F4726E10F5A
S3150FE108707C09E10F533235464C3230384B000000DC
S3150FE108805732355832304256000000005732355153
S3150FE1089038304256000000004D5832354C32303078
S3150FE108A0364500004D5832354C3430303645000070
S3150FE108B04D5832354C383030364500004D583235CB
S3150FE108C052383033354600004D5832354C313630DB
S3150FE108D0364500004D583235553136333545000032
S3150FE108E04D583235523634333546000041543235A0
S3150FE108F044463034314100004154323544463038B4
S3150FE109003141000041543235534630343100000055
S3150FE109104D323550323000004D3235503430000013
S3150FE109204D32355038300000495332354C51303263
S3150FE1093035420000495332354C51353132420000D0
S3150FE10940495332354C51303130420000495332353B
S3150FE109504C51303230420000495332354C5130342C
S3150FE1096030420000000000000200000000200000FD
S3150FE1097000F003000010040000F003000001000086
S3150FE10980CD18E10F2519E10F4F19E10F6D19E10FA0
S3150FE10990B119E10F8F17E10F8916E10F6718E10F13
S3150FE109A0CB19E10FF519E10F551AE10F3D12E10FE1
S3150FE109B05912E10F9712E10F5113E10F0A0A48405D
S3150FE109C000F0FF0008214308C00746BF034858401F
S3150FE109D01846491EF7D15040704700002083B8ED05
S3150FE109E070B504460D461046002604E00146A05DAB
S3150FE109F0FFF7E4FF761CAE42F8D370BD82B000EB91
S3150FE10A0040000021CDE90001DDE90001421E61F15F
S3150FE10A100003CDE9002300229142F5D19042F3D1B3
S3150FE10A2002B07047890001EB401000F1844002608B
S3150FE10A30704780B501213E4800F098F801213D4805
S3150FE10A4000F094F8002304220621022000F0E0F8DA
S3150FE10A50002302220721022000F0DAF80023042204
S3150FE10A600821022000F0D4F80123042204210020FA
S3150FE10A7000F0CEF8304840F6AA61C16000218160EE
S3150FE10A80C1642E49816440F20141016041F20501E1
S3150FE10A9041602B49096801290CBF4FF480614FF47E
S3150FE10AA0106141611021C1600B21416725498167C1
S3150FE10AB00521C16001BD01461CE038B504461E4D56
S3150FE10AC02102090E00F012F82104090E00F00EF8CA
S3150FE10AD000F00BF8284600F0D5F8284600F0D2F8DA
S3150FE10AE02846BDE8324000F0CDB8E1B2284600F025
S3150FE10AF0D7B8FF21104800F0C9B838B50E4CFF2121
S3150FE10B00204600F0CDF8FF21204600F0C9F8204637
S3150FE10B1000F0B8F80546204600F0B4F840EA0520A3
S3150FE10B2032BD002200E00122042107487AE70000E6
S3150FE10B30003508000052040000040140F9FF0100EE
S3150FE10B4094400E400B0B000B0CA00040890001EB0B
S3150FE10B50401000F1844002607047DFF874104A6874
S3150FE10B60D20702D40A680242FCD1704770B502126D
S3150FE10B700C4602F00F020021521E092ADFF85450EB
S3150FE10B8014D8DFE802F005141313071619131C2006
S3150FE10B90DFF83850C0F3043611B10846FFF7DDFF31
S3150FE10BA0224631462846BDE87040CFE770BD103585
S3150FE10BB0F0E730350121EDE738351021EAE7403529
S3150FE10BC04FF48031E6E7DFF81050E3E700400E40DF
S3150FE10BD040410E40B0400E4050410E40890001EBBE
S3150FE10BE0401000F184400260704710B53024244B69
S3150FE10BF06043BDE810401844002207E010B53024E9
S3150FE10C001F4B6043BDE81040184401220C30E5E765
S3150FE10C10F8B50446164630000D461F4607D0002F9D
S3150FE10C20204602D0FFF7EAFF01E0FFF7DEFF3021B2
S3150FE10C300F22134811FB04F1082D084405D2AB002E
S3150FE10C40416800F015F8416006E0A5F108039B0045
S3150FE10C50816800F00DF881604EB9002F29462046D4
S3150FE10C6002D0BDE8F440C9E7BDE8F440BDE7F1BD08
S3150FE10C709A4021EA020206FA03F111437047000096
S3150FE10C8000A0004001690906FCD506E0026952069B
S3150FE10C90FCD5416301698906FCD5C069C0B27047CD
S3150FE10CA002695206FCD541637047FEE706480068C4
S3150FE10CB0006970470548064A00680168914201D10B
S3150FE10CC000697047002070472808E10F2800E10FFF
S3150FE10CD0AD1007B04FF4017000F0A2F800BF404825
S3150FE10CE040490068086082B03F4840490068000EFD
S3150FE10CF008D14AF6E852CA624A6B42F004024A63E5
S3150FE10D000022CA62022803DA086840F4005008603C
S3150FE10D103748016821F4401141F4881101603548E3
S3150FE10D20016841F48071016040213348C160016877
S3150FE10D304903FCD400F0A8F800F06DF800F0AAF82A
S3150FE10D4010B940F201200EE040F205422B49009125
S3150FE10D5090420DD102E00098401E009000980128C4
S3150FE10D60F9DA40F2032000F05BF80098401E00909C
S3150FE10D7000980128F9DA4FF40170F4E710B520482D
S3150FE10D8001680124B1F5803F0ED0006840050BD50F
S3150FE10D9000F068F840F20221401A04D0C01E02D0DA
S3150FE10DA0C01E012800D800240420006810F1010FAD
S3150FE10DB006D1BDE810404FF4027000F025B810BD22
S3150FE10DC0002CFCD00F490020086000221046016874
S3150FE10DD081F3088881F3098840688746FEE70000BA
S3150FE10DE08400002088000020FC81E00F64310E4072
S3150FE10DF020400E4000000E4004300E4080969800D1
S3150FE10E0004500E4008ED00E04FF0005108804FF21C
S3150FE10E100F00488070470F494CF23C30088070470D
S3150FE10E204FF0005108804FF20F0048800A480168E1
S3150FE10E3021F4E06141F480610160BFF34F8F074810
S3150FE10E40074A016801F4E06111430160BFF34F8F77
S3150FE10E5000BFFDE70200002000500E400CED00E060
S3150FE10E600400FA054FF000504FF20F02418891420C
S3150FE10E7001D100887047002903BF0088012840F29D
S3150FE10E8002204FF40070704700F0ADB900F0C5BA1B
S3150FE10E900020704730B50FF29801E3B0D1E9002396
S3150FE10EA068460221C0E90023002500F0EDFB00288A
S3150FE10EB039D100245DF8240010F1010F2BD04FF446
S3150FE10EC0C07202A900F081FD002102A800F092FD97
S3150FE10ED040F201218842F7D040F2032188421AD12C
S3150FE10EE09DF809009DF8081071B1A0B10F4800688F
S3150FE10EF003998068884208D25E9800F004FE50B1EB
S3150FE10F0040F20920FFF78CFF28B103A881685E98AC
S3150FE10F1000F010FE18B9641C022CCBD301E00020BF
S3150FE10F2001E040F2054063B030BD00002808E10F53
S3150FE10F30FFFFFFFF0000000080B5FFF7F2FD06207F
S3150FE10F40FFF7B9FDBDE80140FFF7EDBD38B5FFF796
S3150FE10F50E8FD9F20FFF7AFFDFFF7CBFD0446FFF757
S3150FE10F60CCFD0546FFF7DFFD012C0AD01F2C3ED045
S3150FE10F70202C4FD09D2C60D0C22C15D0EF2C06D053
S3150FE10F8072E044F2140085426ED1012032BD43F284
S3150FE10F901200854204D044F21400854202D063E088
S3150FE10FA0022032BD032032BD42F212002D1A10D0BB
S3150FE10FB06D1E10D06D1E10D06D1E12D04FF4A460B1
S3150FE10FC02D1A10D040F2DF202D1A08D0ED1E0CD0CD
S3150FE10FD04AE0042032BD052032BD062032BD07208E
S3150FE10FE032BD082032BD092032BD0A2032BD44F29E
S3150FE10FF00140854208D044F20150854206D048F2BD
S3150FE110000140854204D02FE00B2032BD0C2032BDCA
S3150FE110100D2032BD42F212002D1A06D06D1E06D0FA
S3150FE110206D1E06D06D1E06D01EE00E2032BD0F20BE
S3150FE1103032BD102032BD112032BD44F209002D1A06
S3150FE1104008D0ED1F08D06D1E08D06D1E08D06D1E9D
S3150FE1105008D009E0122032BD132032BD142032BD73
S3150FE11060152032BD162032BD002032BD80B500F00D
S3150FE11070E5F80028FBD1FFF769FF401E15284BD88D
S3150FE11080DFE800F00B0E1114171A1D202326292C69
S3150FE110902F3235384A3B3E4144470FF2A03002BD6D
S3150FE110A00FF2B43002BD0FF2CC3002BD0FF2E030D9
S3150FE110B002BD0FF2F83002BD0FF20C4002BD0FF286
S3150FE110C0244002BD0FF2384002BD0FF2504002BD7F
S3150FE110D00FF2644002BD0FF27C4002BD0FF2904069
S3150FE110E002BD0FF2A84002BD0FF2BC4002BD0FF2E6
S3150FE110F0D44002BD0FF2E84002BD0FF2005002BD2F
S3150FE111000FF2145002BD0FF22C5002BD0FF24050F8
S3150FE1111002BD0FF2585002BD002002BD10B50446C4
S3150FE1112000F08CF80028FBD114B9FFF70FFF05E0AB
S3150FE111302078010002D1FFF709FF2070401E152824
S3150FE1114024D8DFE800F01A141A14171A1A1D1D20F5
S3150FE11150171A1714171A1D0B0E1114174FF4004017
S3150FE1116010BD4FF4803010BD4FF4003010BD4FF479
S3150FE11170802010BD4FF4002010BD4FF4801010BD3C
S3150FE111804FF4001010BD4FF4000010BD002010BD4C
S3150FE1119010B50C18B4F5802F01D8012010BD1046FB
S3150FE111A0FFF7BCFFA0428041C043C00F10BD10B591
S3150FE111B00C46FFF780FC2046BDE81040FFF77DBCEB
S3150FE111C038B504460D4600F039F80028FBD1FFF794
S3150FE111D0B3FEFFF7A6FC29462046FFF7E8FFBDE879
S3150FE111E03140FFF7A0BC10B5FFF723FC00F0DAFCA6
S3150FE111F042F210742046FFF701FCFFF792FCAB2099
S3150FE11200FFF759FCFFF78FFC2046FFF7F7FBFFF7D8
S3150FE112109DFE10B940F2011010BD0B3802280BD21A
S3150FE11220FFF78AFEFFF77DFC0120FFF744FC002064
S3150FE11230FFF741FCFFF777FC002010BD10B5FFF774
S3150FE1124070FC0520FFF737FCFFF753FC0446FFF769
S3150FE112506AFC04F0010010BD70B50D4600F073F89D
S3150FE1126010B940F2024070BDFFF7E8FF0028FBD14D
S3150FE11270FFF757FC21460320FFF799FF03E0FFF73E
S3150FE1128038FC05F8010B3046461E0028F7D1FFF76B
S3150FE112904AFC002070BD2DE9F84F894600F053F85E
S3150FE112A010B940F202402BE03746FFF7C7FF00289F
S3150FE112B0FBD1FFF736FC21460320FFF778FF3846CF
S3150FE112C0471E30B1FFF715FCFF28F8D040F2034077
S3150FE112D016E0FFF728FC200640F201174FF480785D
S3150FE112E009D0200A000200F580703119814204D33A
S3150FE112F0051BADB202E0BE4204D235461EB900204F
S3150FE11300BDE8F28F4546AB46CA46FFF797FF002881
S3150FE11310FBD1FFF711FEFFF704FC21460220FFF791
S3150FE1132046FF03E01AF8010BFFF7C5FB5FEA0B0077
S3150FE11330ABF1010BF6D1FFF7F6FB761B2C19BE428B
S3150FE11340A944DFD2D9E716460446002231461FE704
S3150FE113502DE9F843044600208DF800000D46684656
S3150FE11360FFF7DCFE9DF800108046A1F10E0240F674
S3150FE11370FF764FF6FF70042A4FF48037814638BF68
S3150FE11380064607D3A1F1120002283CBF4FF40047EE
S3150FE1139047F6FF7935420CBF344240F204403AD169
S3150FE113A06A4629462046FFF7F3FE10B940F202409E
S3150FE113B031E0BCB9454515D1FFF740FF0028FBD118
S3150FE113C0FFF7BAFDFFF7ADFBC720FFF774FBFFF79A
S3150FE113D0AAFB1FE021462020FFF7F2FE04F5805419
S3150FE113E0A5F58055002D18BF14EA090FF2D1BD42BC
S3150FE113F00ED32146D820FFF7E3FE3C19ED1BF6E7A6
S3150FE1140021462020FFF7DCFE04F58054A5F5805533
S3150FE11410002DF5D10020BDE8F28380B5FFF70EFF71
S3150FE114200028FBD1FFF77DFBB920FFF744FBFFF760
S3150FE114307AFBC046C046002002BD00000102030050
S3150FE114409A010000003C00000010000000001000AF
S3150FE114507408E10F01000000010203009A01000088
S3150FE114600008000000100000000004008008E10FF2
S3150FE1147001000000010203009A01000000180000BC
S3150FE1148000100000000010008C08E10F01000000C1
S3150FE11490010203009A010000340F00000010000062
S3150FE114A0000004009808E10F0100000001020300AB
S3150FE114B09A010000001E0000001000000000080065
S3150FE114C0A408E10F01000000010203009A010000E8
S3150FE114D0003C00000010000000001000B008E10F12
S3150FE114E001000000010203009A01000000780000EC
S3150FE114F00010000000001000BC08E10F0100000021
S3150FE11500010203009A0100000078000000100000BC
S3150FE1151000002000C808E10F0100000001020300EE
S3150FE115209A010000005000000010000000002000AA
S3150FE11530D408E10F01000000010203009A01000047
S3150FE1154000C003000010000000008000E008E10F7A
S3150FE1155001000000010203009A010000001C0000D7
S3150FE115600010000000000800EC08E10F0100000088
S3150FE11570010203009A010000007000000010000054
S3150FE1158000001000F808E10F01000000010203005E
S3150FE115909A01000000300000001000000000080072
S3150FE115A00409E10F0100000001020300000C000035
S3150FE115B00018000000000100000004001009E10F0F
S3150FE115C00100000001020300000C000000280000EA
S3150FE115D000000100000008001809E10F01000000FA
S3150FE115E001020300000C00000050000000000100A2
S3150FE115F0000010002009E10F0100000001020300C5
S3150FE116009A010000000200000010000000800000B7
S3150FE116102809E10F01000000010203009A01000011
S3150FE116200004000000100000000001003409E10F82
S3150FE1163001000000010203009A010000000600000C
S3150FE1164000100000000002004009E10F0100000058
S3150FE11650010203009A0100000008000000100000DB
S3150FE11660000004004C09E10F010000000102030034
S3150FE116709A010000000C00000010000000000800B5
S3150FE116805809E10F010000002DE9F04399B000F090
S3150FE11690E4F86846142100F087FA684600F016F977
S3150FE116A0039802284FF0FF3809D20020206001206D
S3150FE116B0A8423CBF44F82080401CF9D35CE0A84225
S3150FE116C038BF40F2045058D3FFF7E2FB07460498C0
S3150FE116D0C068C6190C2205A93846FFF7BDFD0028DB
S3150FE116E04BD10598DFF8609148451FD00C2205A92B
S3150FE116F03046FFF7B1FD00283FD10598484507D0A1
S3150FE117000020A8423CBF44F82080401CF9D31DE0DD
S3150FE11710079A05A93046FFF79FFD00F099F860BBE0
S3150FE11720079A05A93846FFF7B6FD30BB079A05A913
S3150FE117303846FFF791FD0799424605A8FFF750F99D
S3150FE117404249884205D0002000F01AF840F20550D0
S3150FE1175013E0079810388008A84288BF2846002171
S3150FE1176006E005AA02EB8102D26844F82120491C62
S3150FE117708142F6D300F004F8002019B0BDE8F083FA
S3150FE1178002E044F82080401CA842FAD37047F0B536
S3150FE1179099B000F062F82C480590142101200690CB
S3150FE117A050200790684600F0FFF9684600F08EF882
S3150FE117B00398A84207D302280AD22068002818BF47
S3150FE117C010F1010F02D040F204503AE0002038E068
S3150FE117D00020C04606460498C0688719112D28BF18
S3150FE117E01025002006E005AA54F8201002EB80022E
S3150FE117F0401CD160A842F6D34FF0FF3004E005A9B3
S3150FE1180001EB85016D1CC860102DF8D302464C2102
S3150FE1181005A8FFF7E5F8C043189000F019F880B96D
S3150FE11820502205A93846FFF736FD50B90498C1682D
S3150FE118303046FFF78DFD20B9502205A93046FFF757
S3150FE118402AFD19B0F0BD000039528FE1E320BBDE6E
S3150FE118500498C1683846FFF77BBD04460D4605A8D7
S3150FE11860502100F0A1B930B595B004466846142170
S3150FE1187000F09AF9684600F029F8039D022D20D36E
S3150FE11880294605A8FFF700FF00281CBF40F20551C6
S3150FE11890884218D1002005A900E0401CA84210D2C9
S3150FE118A051F8202012F1010F06D141F820402946C7
S3150FE118B005A8FFF76CFF06E0A242EED140F2035016
S3150FE118C001E040F2025015B030BDFEE710B504005D
S3150FE118D00CD04FF48030206000206060934801788F
S3150FE118E021724068E060FFF7C1FB206110BD70B562
S3150FE118F004464FF4B87026180D46A2B0B1683068A9
S3150FE11900802301AA00F023F80095802301AA21463E
S3150FE1191004F1240000F096FAF060B0688030B06010
S3150FE1192022B070BD10B540F2014231B17F4B5C6818
S3150FE11930A04204D3002008604860104610BD03EBB7
S3150FE11940C00082680A60C0684860002010BD38B5E3
S3150FE1195000F021F800D325E000F017F800D224E0DB
S3150FE1196080682018BDE83840FFF776BC38B500F03F
S3150FE1197012F800D316E000F008F800D215E08068FF
S3150FE119802018BDE83840FFF786BC03EBC0001519F8
S3150FE11990C368AB4270470C4611461A46634B5D6806
S3150FE119A0A842704740F2014032BD40F2024032BDDB
S3150FE119B05E494A68904202D340F20140704701EB1B
S3150FE119C0C000C1688068FFF7C3BC30B504460D4659
S3150FE119D083B01146284600F01FFE50B969462046EE
S3150FE119E0FFF7A0FF4FF4B8702844046001994160F6
S3150FE119F000203EBD7FB504460D460FF268100FC8B5
S3150FE11A006E4686E80F0002954FF4BA702518A8685E
S3150FE11A1088B96868296888420DD269462046FFF77A
S3150FE11A2066FFA86800281CBF41F2070188420CD166
S3150FE11A3040F2012009E0A01C017800291DBF407882
S3150FE11A40002840F2032040F2022004B070BD0120CD
S3150FE11A5018707047F0B585B0044600208DF8000088
S3150FE11A600D4616460FF20C100FC801AF87E80F00AF
S3150FE11A70CDF804D0002030601C21284600F094F800
S3150FE11A804FF4BA70271803E001A92046FFF72FFF9D
S3150FE11A909DF8000028B9B86818B97868396888429E
S3150FE11AA0F2D3207808B160683060607828B11C22E3
S3150FE11AB004F10801284600F0F5FD002005B0F0BD60
S3150FE11AC070B504464FF482700D46221804F1BC013D
S3150FE11AD004F1240000F06DF94FF4BA70261803E013
S3150FE11AE029462046FFF703FFB06818B970683168D9
S3150FE11AF08842F5D3A01C017800291DBF4078002844
S3150FE11B000120002070BD10B5094AE4B01268926851
S3150FE11B108A4202D200F01BF808B1002003E00FF26F
S3150FE11B20640000F018F864B010BD00006409E10F1D
S3150FE11B302808E10F10B5E4B000F009F808B100206C
S3150FE11B4003E00FF2500000F006F864B010BD4FF459
S3150FE11B50C07204A939E70FC86C4684E80F006946DD
S3150FE11B6004A8ADE70000000000000000000000003F
S3150FE11B7000000000000000004F1AE10F4F1AE10FBD
S3150FE11B804F1AE10F00000000000000000000000006
S3150FE11B909338E10F000000004538E10F0000000027
S3150FE11BA0000000007047FEE7002200F0A7BDFEE748
S3150FE11BB030B59A423FBF9C1A456C2C19412C01D383
S3150FE11BC0002030BD846C456C2C1904F03F040444AD
S3150FE11BD08D5C2571521C446C641C9A424464F1D3AA
S3150FE11BE0012030BD70B5059D00240CE0866C0644DE
S3150FE11BF036790E55641C866C761C06F03F068664B4
S3150FE11C00466C761E4664466C0EB1AC42EED3049832
S3150FE11C1005E0965D0E55641C1E68761C1E601E68F7
S3150FE11C20864238BFAC42F4D3AC420CBF0120002050
S3150FE11C3070BD406C081870472DE9F043164604460F
S3150FE11C4083B030680F4699460B9DA9EB000100F072
S3150FE11C50BDFCA84208D232684B4639462046FFF70B
S3150FE11C60A7FF68B1002038E0DDF828800195CDF8AF
S3150FE11C70009033463A4641462046FFF7B3FF20B977
S3150FE11C801020207041F2020027E004F19007294667
S3150FE11C903A684046FEF7A4FE38600C9820B1206DF5
S3150FE11CA02A46414600F04DFD0D9838B1787978B165
S3150FE11CB0E06C2B464246414600F067FD787938B134
S3150FE11CC0206EE16D28182066884224BF00207871C6
S3150FE11CD0A06D2818A06541F20300BDE8FE832DE94A
S3150FE11CE0F041074607F1950486B0A078002814BFA6
S3150FE11CF004250825002003900290019504A8009081
S3150FE11D0041F203083846FFF797FF404549D120785E
S3150FE11D104C3738B100F048F838682B4604AA04A9C5
S3150FE11D2000F033FD0C9EA17804A871B141789DF8BE
S3150FE11D30102042EA012149BA89B23160C17880782F
S3150FE11D4040EA012040BA80B218E08278C1781204E5
S3150FE11D5042EA0161427841EA02219DF810201143DE
S3150FE11D6031609DF816209DF817100079120442EAAA
S3150FE11D7001619DF8152041EA022108437060207840
S3150FE11D8050B93068DFF8D81788421CBFDFF8D4178F
S3150FE11D90884201D000F008F87068B8600020F8605A
S3150FE11DA0404606B0BDE8F08178682A4604A900F0FE
S3150FE11DB0C8BCF8B50446002004F14407207038602A
S3150FE11DC078600D4604F19400002101704170817035
S3150FE11DD0C1704FF0FF30F86439627962B962164625
S3150FE11DE0FF22182104F1700000F0E0FCFF2204212C
S3150FE11DF004F1880000F0DAFCFF22042104F18C00E3
S3150FE11E0000F0D4FCBD60FE600020C04640B100206A
S3150FE11E10C04610B90020C04610B11020207007E06F
S3150FE11E200020C04600B11DB10020C04618B116B959
S3150FE11E3041F20B00F2BD16B1F86800F078FC002014
S3150FE11E40F2BD00002DE9F24F98B004460020049050
S3150FE11E5008A8DDF888B0079090469A4604F14C053C
S3150FE11E6041F2030908AE11E000F0C9FB484552D132
S3150FE11E7000F090FB41EA000700F09CFB00B13FBA8E
S3150FE11E80AF61E8680428EFD3092020700498504524
S3150FE11E9080F0618320781028F8D8DFE810F013007E
S3150FE11EA03900F4004101BA01F0019E01F00112007F
S3150FE11EB0F0011200B702590319032F033403590333
S3150FE11EC0E4E7DEE70020C04650B198F8010098F844
S3150FE11ED0001051EA002003D104F194010120C870EA
S3150FE11EE000F06CFB484516D10698DFF87C16A86022
S3150FE11EF00020E8600598884208BF0220C5D0002877
S3150FE11F0040F0AF8100F056FB002840D00320BCE73C
S3150FE11F1000F054FB484540F01F8304F194008078AC
S3150FE11F2020B10598DFF83C1688423FE094F894001B
S3150FE11F3000283DD004F194004078C8BB0598DFF83E
S3150FE11F40281688421CBFDFF8241688421FD0DFF817
S3150FE11F50201688421CBFDFF81C16884217D0DFF81F
S3150FE11F600016884200F08180DFF80C16884213D004
S3150FE11F70DFF8081688420DD0DFF8E815884212D04F
S3150FE11F80DFF8FC1588421CBFDFF8F815884200F030
S3150FE11F90688140E00D2078E70E202070A86828615F
S3150FE11FA00020686172E70020C04600285BD12BE074
S3150FE11FB000F000FB0028059830D040F2FE21401AD0
S3150FE11FC024D04FF20A31401A08D040F2FC51401AA0
S3150FE11FD00ED0FF3807D0FE3818D01CE0DFF8940595
S3150FE11FE00590072051E7DFF8980505900A204CE7A1
S3150FE11FF0DFF8700505900020C046002802BF04F106
S3150FE120009400407800282ED10B203EE7DFF87405C7
S3150FE120100590082039E71020207031E0DFF84C15E4
S3150FE1202088421AD0DFF84815884214D0DFF84415F4
S3150FE120308842D6D0DFF82815884210D0DFF824156C
S3150FE120408842D8D0DFF838158842CFD0DFF834157B
S3150FE120508842DED00BE0042017E7062015E704F1EE
S3150FE1206094004078002840F0FC800F200DE7102007
S3150FE12070207004F19400407810B141F204006BE254
S3150FE1208041F2080068E2E868082880F05F8200F014
S3150FE12090AFFA082000F09DFA4845F3D1F078000633
S3150FE120A0B0F1407F51D17079317941EA0027F807D4
S3150FE120B003D5012084F8940002E00020C04628B938
S3150FE120C00020C0460028DED0F805DCD410202070B1
S3150FE120D041F20A0040E2F078B17841EA002040BAD5
S3150FE120E080B24EF250318842BDD1B179F07909040F
S3150FE120F041EA0060717940EA01203179084300BA7B
S3150FE12100A861B17AF07A090441EA0060717A40EA8E
S3150FE121100120317A084300BAE8614FF0FF302862B7
S3150FE12120E8680C2838D200F063FA0C2000F051FA77
S3150FE1213048450ED170789DF8201041EA002040BA4B
S3150FE1214000F47F40B0F5007FC5D01020207041F23A
S3150FE12150090001E2296AFF20FEF730FC01462962F8
S3150FE12160FF20FEF72BFC28620146B078FEF726FC2E
S3150FE1217028620146F078FEF721FC2862DBF804C0FD
S3150FE12180BCF1000F08D0DBF80030A869042208A9DA
S3150FE12190E047A869001DA861E868A968884215D2D9
S3150FE121A00498AAEB000100F011FA042876D3E86847
S3150FE121B0A0F10C0700F023FA4845CAD1102FC9D078
S3150FE121C02A6A042108A8FEF70BFCD6E7E969286A13
S3150FE121D0C943884200F0BA8125E1A868E9688142DE
S3150FE121E050D20190012108A8039102910090534624
S3150FE121F004AA00F0F9F9484537D118981C2208A925
S3150FE12200083000F04FFA189901204870E5E70520EC
S3150FE122102070E8680828BFF439AE012003900290D8
S3150FE122205346082000F0DCF948451ED11899D64AE5
S3150FE122300120087000F0AEF9084318994860D348B9
S3150FE12240006801689142E2D1B279F179C06812046E
S3150FE1225042EA0161727941EA0221327911438142FF
S3150FE12260D5D01020207041F2010075E1DBF8003086
S3150FE12270E8693A4608A9E047E8693818E861A868C5
S3150FE12280E968814280F06281471A0498042FAAEB2C
S3150FE12290000120464FD3FFF7CCFC04284FD3049817
S3150FE122A0AAEB00000090412F014628BF402700F01E
S3150FE122B08DF9B84203D2009900F088F90746042F49
S3150FE122C024BFBF08BF00012003900290019708A821
S3150FE122D00090534604AA00F087F94845C5D1207806
S3150FE122E0072804D1DBF808C0BCF1000FBED1C7F156
S3150FE122F00400042F009007D2014608A8FF22C01957
S3150FE1230000F054FA0098C719207809285AD1DBF85A
S3150FE123100410002956D0FEF7C9FCA969001D7B18E8
S3150FE1232083422DD300F11802914229D2884234BF5C
S3150FE12330009100900AE0FFF77CFCB842AFD2049A15
S3150FE12340534641462046FFF733FC04E1934234BF3F
S3150FE1235001930192009A009B511A08AA1144029126
S3150FE12360181A0199009A8A1A02992044703000F0DE
S3150FE1237089F901980099411A0298FF2200F016FA9D
S3150FE12380FEF798FCA969001D884222BF7A18031D42
S3150FE123909A420BD3079A8018401A009001460422FD
S3150FE123A004F1880000F06EF900F0FFF8DBF8003079
S3150FE123B0A869DBF804C03A4608A9E047A8693818C6
S3150FE123C0A8615CE70528FCD1DBF80C000028F8D002
S3150FE123D0286A05280ED2391807290BD30799091D43
S3150FE123E0081A00900146042204F18C0000F04AF924
S3150FE123F000F0DBF8DBF80030286ADBF80CC03A4670
S3150FE1240008A9E047286A3818286238E700200390C0
S3150FE1241002905346042000F0E3F8484507D1686C73
S3150FE124205B49884204D01020207041F2050093E009
S3150FE124300020C04618B918990120C87003E0189812
S3150FE12440C07800283ED0286A98B100F0B3F880B979
S3150FE12450DBF80C805FEA08000BD0042204F18C0153
S3150FE1246008A800F00FF9DBF80030042208A90420D0
S3150FE12470C047A86900281CBFDBF80400002821D05B
S3150FE12480182204F1700108A800F0FCF8FEF70EFC23
S3150FE12490DBF80030DBF80480182208A9001DC047DD
S3150FE124A0FEF708FC05000DD0042204F1880108A807
S3150FE124B000F0E8F8DBF80030DBF80480042208A925
S3150FE124C0281DC0471899012088700C20207042E022
S3150FE124D0E86810283AD200F08BF8102000F079F86E
S3150FE124E0484539D100F09AF98021009001910123F5
S3150FE124F0286809AA022100F029F9E9E704F1940114
S3150FE125000120487022E004F194008078F0B903903D
S3150FE1251002905346402000F063F848451CD16868A5
S3150FE1252000F011F9686810AA08A900F07FF938B12F
S3150FE1253018990020C8701020207041F206000BE0B8
S3150FE1254018990120C87004F19401887001209CE468
S3150FE1255041F2070000E0002019B0BDE8F08F00005E
S3150FE12560F70A0AF7FC0404FCEB17A603F40A0AF4CC
S3150FE12570F50909F5F60808F6F90707F9FA0606FA6D
S3150FE12580FD0303FDFE0101FEAD1007B02800E10FCB
S3150FE12590E320BBDEB178F078090441EA0060717897
S3150FE125A040EA01209DF8201070470098FF22042190
S3150FE125B000F0FCB804F19400C078704705A80090CC
S3150FE125C0534604AA41462046FFF789BB2046FFF74B
S3150FE125D030BB0190414608A800902046FFF72CBB7F
S3150FE125E0019004AA08A8009041462046FFF724BBB4
S3150FE125F00020039053460120029004AA7047012060
S3150FE126000390029053460420019004AA08A8009073
S3150FE1261041462046FFF710BB10B5B1F5C07F044622
S3150FE1262002D240F2052010BD4FF4C071FFF7BCFA9C
S3150FE126304FF48270221804F1BC0104F12400BDE8C5
S3150FE126401040FFF7B6BB10B582B00446009104F116
S3150FE1265024002146FFF7F6FB00281CBF41F20701D4
S3150FE126608842C4F87C010CD1A01C017839B14078BD
S3150FE12670002814BF40F2032040F2022016BD40F2BB
S3150FE12680012016BD62B38B0708D0521E11F8013B2C
S3150FE1269000F8013B00F024808B07F6D1830740F069
S3150FE126A0208000BF103A07D330B4B1E83810103AA2
S3150FE126B0A0E83810F9D230BC530724BFB1E80810AF
S3150FE126C0A0E8081044BF51F8043B40F8043BD20799
S3150FE126D024BF31F8022B20F8022B44BF0B7803708D
S3150FE126E07047083A07D3B1E80810083A40F8043BB7
S3150FE126F040F804CBF7D25307E4E7FEE700B500BF96
S3150FE12700130096469446103928BFA0E80C50FAD824
S3150FE127105FEA417C28BF0CC048BF40F8042BC907CC
S3150FE1272028BF20F8022B48BF00F8012B00BD10B5DA
S3150FE12730044600F0F9F82046BDE81040002100F00C
S3150FE12740F6B800F05CB9014600F090B9F8B5054668
S3150FE127500E4617461C4600F0D5FA079A0699284603
S3150FE1276000F0D3FA05F124000021016006750C2271
S3150FE12770394605F13900FFF785FF05F14500210CD3
S3150FE1278001708470210A4170F1BD10B584B01C4609
S3150FE127900191029200F12801009100F1380300F155
S3150FE127A02402214600F0F8FA1FBDFEE762F30F227D
S3150FE127B062F31F42401810F0030308D0C91A1FD362
S3150FE127C0DB0748BF00F8012D28BF20F8022D1300C3
S3150FE127D030B414461546103928BF20E93C00FAD823
S3150FE127E0490728BF20E90C0048BF40F8042D8900AE
S3150FE127F028BF20F8022D48BF00F8012D30BC7047E5
S3150FE12800C91818BF00F8012DCB0728BF00F8012D15
S3150FE128107047FEE702487047024870470248704723
S3150FE128204A43E00F6A43E00F8642E00F70B50400BA
S3150FE128300D4618BF002DA2B0164600D016B940F2CC
S3150FE12840016023E001211248FEF790F9402111A81A
S3150FE12850FFF7AAF9FFF7DEFF014611A800F093FD96
S3150FE12860FFF7DAFF014619A800F08DFD294601A809
S3150FE1287000F089FD314609A800F085FD01A8009019
S3150FE1288011AB20222146034800F08CFD22B070BD2A
S3150FE128900005080000000F4010B54A688B68CC6848
S3150FE128A00968016002600360046010BD10B502683B
S3150FE128B00368046800680A608C604B60C86010BDED
S3150FE128C038B504460D46FFF7F1FF05F11001204635
S3150FE128D0BDE83440EAE738B504460D46FFF7DCFFBD
S3150FE128E005F110012046FFF7D7FF05F1200120463C
S3150FE128F0FFF7D2FF05F130012046BDE83440CBE7C3
S3150FE1290010B50C4614F0030188B008D06946FFF7FD
S3150FE12910D7FF202269462046FFF7B4FE02E02146A3
S3150FE12920FFF7CEFF08B010BD6C21FFF73DB979B9BE
S3150FE12930734A0260734A4260734A8260734AC260A5
S3150FE12940734A0261734A4261734A8261734A0EE0C6
S3150FE12950734A0260734A4260734A8260734AC26085
S3150FE12960734A0261734A4261734A8261734AC26171
S3150FE129708166002202624262002070472DE9F04132
S3150FE129806F4E90B0044630686E4FDFF8BC8140F071
S3150FE12990010030600D466D486D490160416821F4D3
S3150FE129A0406141601021016300214163694901657D
S3150FE129B06949416538462146FFF76EFF04F110017B
S3150FE129C03846FFF769FF15F0030009D04022294683
S3150FE129D06846FFF757FE69464046FFF77CFF03E07F
S3150FE129E029464046FFF777FF21463846FFF768FF4E
S3150FE129F0306840084000306010B0BDE8F0812DE945
S3150FE12A00F041160004460D462ED0206A00F03F072E
S3150FE12A103018B042C7F14008206202D2606A401C0A
S3150FE12A206062B7B1464514D3E01942462830FFF745
S3150FE12A3029FE04F128012046FFF7A0FF4544A6EB46
S3150FE12A400806002705E029462046FFF797FF4035A0
S3150FE12A50403E402EF7D23EB132462946E019BDE857
S3150FE12A60F0412830FFF70EBEBDE8F0817CB5044694
S3150FE12A700D46616A206A324EC90041EA50718DF8FE
S3150FE12A800310C0000B0C8DF801300A0E0B0A010E74
S3150FE12A908DF804108DF80700010C8DF805108DF8EF
S3150FE12AA00020010A8DF802308DF8061094F8200007
S3150FE12AB00FF2AC0100F03F00382834BFC0F1380205
S3150FE12AC0C0F178022046FFF79AFF082269462046B1
S3150FE12AD0FFF795FF306840F00100306029461F4847
S3150FE12AE0FFF70EFF3068400840003060A06E20B15E
S3150FE12AF0042105F11C0000F0B3FD73BD00000000D9
S3150FE12B0067E6096A85AE67BB72F36E3C3AF54FA588
S3150FE12B107F520E518C68059BABD9831F19CDE05BB4
S3150FE12B20D89E05C107D57C3617DD703039590EF7BA
S3150FE12B30310BC0FF11155868A78FF964A44FFABE80
S3150FE12B40B0400E4000010F40A4010F4000000F40BE
S3150FE12B50040010307081C872070D010030010F407B
S3150FE12B6080000000000000000000000000000000EF
S3150FE12B70000000000000000000000000000000005F
S3150FE12B80000000000000000000000000000000004F
S3150FE12B90000000000000000000000000000000003F
S3150FE12BA010B54A688B68CC680968016002600360FA
S3150FE12BB0046010BD10B502680368046800680A6016
S3150FE12BC08C604B60C86010BD38B504460D46FFF703
S3150FE12BD0E7FF05F110012046BDE83440E0E71FB5F8
S3150FE12BE0044611F0030008D010226846FFF74AFDAC
S3150FE12BF069462046FFF7D4FF1FBD2046FFF7D0FFFA
S3150FE12C001FBD1FB50C4614F0030108D06946FFF747
S3150FE12C10D1FF102269462046FFF734FD1FBD21463D
S3150FE12C20FFF7C8FF1FBD80B50168802903D0B1F555
S3150FE12C30807F0FD012E0DFF8442201211160426854
S3150FE12C40DFF83C120A6082680A60C2680A600069AE
S3150FE12C50086001E000F026F8002002BD6FF01F00CA
S3150FE12C6002BD38B50168DFF81842DFF8185280293E
S3150FE12C7003D0B1F5807F0DD011E0DFF800220121FD
S3150FE12C8011604168216081682160C1682160006936
S3150FE12C90206001E000F006F8E562002032BD6FF03A
S3150FE12CA01F0032BDDFF8E02101211160011DDFF8C0
S3150FE12CB0DC0189E72DE9F0470709DFF8D441102058
S3150FE12CC0A062089D099E884691469A4614E02EB168
S3150FE12CD027B9102249463046FFF7D4FC494640460C
S3150FE12CE0FFF77DFF4FF40070206029465046FFF74E
S3150FE12CF088FF103509F110093846471E0028E6D13D
S3150FE12D00BDE8F0872421FEF74FBF80B5802A18BFB3
S3150FE12D10B2F5807F00D0A1E7FFE740F8042BD20898
S3150FE12D20FFF7B0FC002002BD2DE9F843DFF864613F
S3150FE12D30DFF86471DFF864918046306840F0010096
S3150FE12D4030601446002038607860386301291D46EB
S3150FE12D50786309D100F01DF84046FFF764FF5FEA9B
S3150FE12D6000080FD1052008E04046FFF77AFF5FEA3A
S3150FE12D70000807D100F00DF80620B860294648464D
S3150FE12D80FFF73FFF30684008400030604046BDE83E
S3150FE12D90F2832146484622E72DE9F04F83B0894673
S3150FE12DA0DDF834A00E9C19F00F0F804615461E462E
S3150FE12DB004D1002D1CBF2868002828D02F68DDF824
S3150FE12DC030B01DE097B95B46324601214046FFF729
S3150FE12DD0ABFF10203118321811F8011C491C02F80B
S3150FE12DE0011CC9B211B9401E0128F3DA1AF8010B19
S3150FE12DF01BF80710484004F8010B781C00F00F0789
S3150FE12E005FEA0900A0F10109DCD12F6032E0214D23
S3150FE12E10214F286840F00100286000203860786073
S3150FE12E20386378634046FFF7FEFE5FEA00081CD180
S3150FE12E301249DFF86CB04FF4404008601249086060
S3150FE12E4031465846FFF7CBFE1748144B15493865FF
S3150FE12E505246512078650020019000944846FFF7CD
S3150FE12E6029FF31465846FFF7CCFE28684008400057
S3150FE12E7028604046BDE8FE8F0000000000000F44C9
S3150FE12E8024000F40058C010000000F4610010F4092
S3150FE12E9008000F40B0400E4000000F4080000F4089
S3150FE12EA084000F4088000F404805460310B54A6875
S3150FE12EB08B68CC680968016002600360046010BD2D
S3150FE12EC010B502680368046800680A608C604B609D
S3150FE12ED0C86010BD38B504460D46FFF7E7FF05F1AB
S3150FE12EE010012046BDE83440E0E738B504460D460B
S3150FE12EF0FFF7E6FF05F110012046BDE83440DFE7B5
S3150FE12F008C220FF2D06150430844007A70478C222D
S3150FE12F100FF2C06150430844407A704710B500F094
S3150FE12F2010F8BDE8104000F10C0106E010B500F015
S3150FE12F3008F8BDE8104000F12C0120221846FFF7F2
S3150FE12F40A1BB0B468C240FF28C616043084470479A
S3150FE12F5038B504464FF48470154600F03EF94FF448
S3150FE12F608670294600F039F9DFF8CC052065012096
S3150FE12F7060656069000E00F0010080F0010032BD6E
S3150FE12F802DE9F04700F0EFF888B091469A4608F13F
S3150FE12F90400100F0E6F84FF486702518494600F037
S3150FE12FA0DBF84FF48870261809F120013046FFF758
S3150FE12FB091FFDFF888052065414600F0DCF900F066
S3150FE12FC0CDF84FF4847004EB000908F1200148466F
S3150FE12FD0FFF780FF08F140013046FFF77BFFDFF88F
S3150FE12FE0600520650AF14001DFF8580560650120AB
S3150FE12FF0A0654FF4807026183046FFF776FF6946D5
S3150FE130004846FFF772FF00F0A6F8DFF83C052065AA
S3150FE1301008F12001DFF834056065DFF8340500F0CB
S3150FE130209DF8DFF8300520655146DFF82C05606520
S3150FE130300120A0654846FFF758FF69463846FFF776
S3150FE1304049FFDFF8180520650AF12001DFF81005C1
S3150FE1305060650120A0653046FFF747FF08B0BDE880
S3150FE13060F0872DE9F04700F07EF898B0914608F128
S3150FE13070200100F076F8DFF8C404206508A9DFF82F
S3150FE13080E4046065DFF8E004A06500F09BFA00F068
S3150FE1309062F8DFF8D804206510A9DFF8D40460657B
S3150FE130A04FF48670A06526183046FFF71EFF694676
S3150FE130B000F08BFA08F1400100F053F8DFF8B404A1
S3150FE130C020654146012060654FF4847004EB000AE8
S3150FE130D000F07EFADFF8A00420656946DFF89C046C
S3150FE130E06065DFF89C04A0650120E0655046FFF7B7
S3150FE130F0F1FE10A93046FFF7EDFEDFF888042065F3
S3150FE131004946DFF884046065DFF88004A0654FF473
S3150FE1311088702044FFF7E9FE08F1200100F021F85D
S3150FE1312008F1400100F054FA08A93046FFF7D2FE44
S3150FE13130DFF85C04206509F14001DFF858046065AA
S3150FE131402846FFF7D2FE09F120013046FFF7CDFE03
S3150FE1315018B0BDE8F08741462846BBE6A0650120D9
S3150FE13160E0653846B6E604464FF48270884627187E
S3150FE131707047F8B504460E461D46174620212846E8
S3150FE13180FEF712FD0120286039464FF4807000F0FA
S3150FE1319024F84FF48270314600F01FF84FF4847033
S3150FE131A0261829463046FFF795FEDFF8EC03206532
S3150FE131B00BE0DFF8E8032065DFF8E4036065DFF88D
S3150FE131C0E403A065DFF8E003E0656069C001F0D5CF
S3150FE131D029463046BDE8F44087E620447AE650F8C2
S3150FE131E0043B934203D007E050F8042B22B9091FA1
S3150FE131F00129F9DA01207047002070472DE9F041E6
S3150FE1320088B004460E461546984620216846FEF7D5
S3150FE13210CBFC0120009020210E9F3846FEF7C4FC1F
S3150FE13220202107F12000FEF7BFFC202107F1400026
S3150FE13230FEF7BAFC3046FFF763FE00F0A0F800F0A8
S3150FE1324095F88C210FF28C3011FB06F1084440689A
S3150FE13250461E00E0761E012E16DB00F03EF8F9D58C
S3150FE1326012E0202229463846FFF71CFA202205F103
S3150FE13270200107F12000FFF715FA2022694607F131
S3150FE132804000FFF70FFA761E002E23D43A46394651
S3150FE132902046FFF7E6FE00F020F8F4D500222021C4
S3150FE132A03846FFF79CFF70B10022202107F120007D
S3150FE132B0FFF795FF38B10022202107F14000FFF714
S3150FE132C08EFF0028CDD13B462A4639462046FFF7E9
S3150FE132D057FED8E708B0BDE8F081301106EBD060B4
S3150FE132E0401158F82010A6EB4010C140C8077047AF
S3150FE132F0F0B504460F4691B015461E463846FFF720
S3150FE13300FFFD00F03CF800F031F869463846FFF76B
S3150FE1331005FE08AB6A4605F140012046FFF729FF96
S3150FE133204FF4827008A92044FFF7D4FD4FF486705D
S3150FE1333027182946FFF715FF4FF4887005F120018D
S3150FE13340FFF74BFF7D48206506F1200100F013F8EA
S3150FE13350A0650120E0654FF480702044FFF7C5FDBD
S3150FE1336031463846FFF7C1FD11B0F0BD00202060B0
S3150FE133702063606370478D4860658D4870470146ED
S3150FE13380204600F071B938B50D4604462021FEF707
S3150FE133900BFCFFE71F204242295C2244401ED177F6
S3150FE133A0F9D531BD2DE9F0470F00984618BFB8F1B1
S3150FE133B0000FBAB00446154603D0429E0EB1012D59
S3150FE133C002DA40F20160B4E0FFF7D0FF606840F047
S3150FE133D0100060600020FFF79AFDFFF7D0FF6068ED
S3150FE133E020F4406040F40060606009A9606820F451
S3150FE133F0407040F4007060600020FFF797FD09AA66
S3150FE1340031462046FFF7A4FD30B909AA06F120019E
S3150FE134102046FFF79DFD10B140F2026089E0212DB4
S3150FE13420A8BF2025202111A8FEF7BEFB002014E03E
S3150FE134302A1A521E01A99208A5F1010C01EB82018C
S3150FE13440ACEB000C3B5C0A6C4FEACC0C0CF0180CA5
S3150FE1345003FA0CF31A430A64401CA842E8DB4FF463
S3150FE134608470271811A93846FFF734FD51482065B6
S3150FE1347011A900F0A7F819AB09AA06F12001204618
S3150FE13480FFF777FE4FF4827019A92044FFF722FD6B
S3150FE134904FF4887004EB000911A94846FFF71AFDAE
S3150FE134A04FF4867004EB000A00F091F8424820656C
S3150FE134B011A9424860654846FFF717FD19A900F0C3
S3150FE134C084F821A8009011AB0FF254120021204687
S3150FE134D0FFF794FE01A8009019AB42460021204662
S3150FE134E0FFF78CFE21AB21AA00212046FFF700FF53
S3150FE134F001AB21AA01A92046FFF742FD01AB01AAC3
S3150FE1350000212046FFF7F4FE0020FFF700FDFFF74D
S3150FE1351036FF01A93846FFF7DDFC00F058F82848D9
S3150FE135202065214860656069C0014CBF002040F20B
S3150FE1353004603AB0BDE8F0873035DA108AD11C81E4
S3150FE13540D01482CB1481E11C8CE11C811C84D91C23
S3150FE135508391D11CE014D8141482E11C84D3148214
S3150FE13560D11CE014821CC00C0C0C0100C00C0C83A6
S3150FE13570D91C83D88AD11C83DA0C811482D11C81A0
S3150FE13580C80C0C818CE11CD01484E31482D11C018C
S3150FE13590D81483D11CC00C0139398401D02484FCA1
S3150FE135A01C82FED88B1C81A039380100D91C83D12E
S3150FE135B01C81E11C30D00C0130E11C8430D91C0197
S3150FE135C03035DA144FF48070251828468DE43146EC
S3150FE135D050467FE42000000000010000050C0000CA
S3150FE135E0FFFFFFFFFFFFFFFFFFFFFFFF00000000F1
S3150FE135F0000000000000000001000000FFFFFFFFD8
S3150FE13600512563FCC2CAB9F3849E17A7ADFAE6BC8E
S3150FE13610FFFFFFFFFFFFFFFF00000000FFFFFFFFC0
S3150FE1362096C298D84539A1F4A033EB2D817D037766
S3150FE13630F240A463E5E6BCF847422CE1F2D1176B01
S3150FE13640F551BF376840B6CBCE5E316B5733CE2BD4
S3150FE13650169E0F7C4AEBE78E9B7F1AFEE242E34F03
S3150FE136600022FFF7A7B8FEE742685209042941EAAB
S3150FE13670421209D9491F022908D9C91E032903D9BB
S3150FE13680091F022902D970474260704742F01001C3
S3150FE13690416070476449654A01E021B1491E1369EA
S3150FE136A0DB07FAD401B9B0E0506001201060106970
S3150FE136B010F0060F05D0410700D5A9E0800700D528
S3150FE136C0A9E000207047F0B513460022002936D055
S3150FE136D0554C564D8BB98B4231D250F8046BEE6097
S3150FE136E05B1C08262E60264601E036B3761E2F694F
S3150FE136F0FF07FAD4002EEED11FE0EFF3108672B674
S3150FE1370000230EE02F6907F01907102F08BF2F606E
S3150FE137102F693F07F6D550F8047BEF605B1C102746
S3150FE137202F608B42F4D306B962B6264601E026B185
S3150FE13730761E2869C007FAD40EB96FF00202104659
S3150FE13740F0BD2DE9F0479A46354B364F1C681B689D
S3150FE137503B688046002043F001033B6095088146B4
S3150FE137600C4602E0B14404EB8604A94517D208EBF7
S3150FE1377089063046FFF78EFF010014D1C6F30A0022
S3150FE13780C0F500608608A5EB0900B04238BF0646D2
S3150FE13790524631462046FFF796FF0100E2D03968DF
S3150FE137A0490849003960BDE8F0871D491E4A0B6893
S3150FE137B009681C490B6843F001030B60886001201F
S3150FE137C048604869400704D508684008400008602A
S3150FE137D01EE04869800704D5086840084000086084
S3150FE137E019E00220486001E022B1521E4869C00784
S3150FE137F0FAD422B9086840084000086005E0086875
S3150FE13800400840000860002070476FF002007047E3
S3150FE138104FF0FF3070476FF001007047002390E7DC
S3150FE1382004300E4008000E40809698000C000E40C2
S3150FE138300348016841F47001016070470000000020
S3150FE1384088ED00E02DE9F04104464E4800688846D0
S3150FE13850016916468C4222BF37194069B84216D321
S3150FE13860E00AB4EBC02004BF204600F0AFF804F540
S3150FE138700060C50AED0204E0284600F0A7F805F559
S3150FE138800065BD42F8D332464146204630E0BDE8F9
S3150FE13890F0812DE9F04188463B493C4B09681546D5
S3150FE138A00A689A4222D109694618364909684A696E
S3150FE138B0AF19BA421AD310B9086900F087F8F00ABE
S3150FE138C0B6EBC02004BF304600F080F806F5006085
S3150FE138D0C40AE40204E0204600F078F804F5006437
S3150FE138E0BC42F8D32A464146304601E0BDE8F081B5
S3150FE138F0BDE8F04100F094B8F0B59FB004466846D4
S3150FE139000FF290011022FEF7CDFE22686068616B1F
S3150FE1391002F16042B2F5003F1BD81A4E32681269C6
S3150FE13920904216D31A4DA84213D202F140008142BA
S3150FE139300F460ED3A9420CD210226946384600F043
S3150FE13940A5F800B9BF6930680069874201D3AF4274
S3150FE1395001D3002013E004A8FEF7E9FE3A1B214646
S3150FE1396004A8FEF7EEFE04A8FEF7EDFE07F120022E
S3150FE13970394604A8FEF75AFF401E8041C00F1FB01B
S3150FE13980F0BD00002808E10F2800E10FAD1007B0E8
S3150FE139900100100013B779FAC925DDB7ADF3CFE012
S3150FE139A0F1B614B8084841F67131816301684908E7
S3150FE139B04900016070470448016849084900016000
S3150FE139C0002181637047000008000E4010B50446E0
S3150FE139D0FFF7E8FF2046FFF7E8FE0446FFF7EBFFA8
S3150FE139E0601E8041C00F10BD10B58408800782B0FC
S3150FE139F005D5080440F47F4040F0FF0003E041F0B5
S3150FE13A007F4040F47F000090FFF7CCFF0422694628
S3150FE13A10A000FFF703FF0446FFF7CDFF204616BDD3
S3150FE13A202DE9F04104460E46154604F0010005F076
S3150FE13A300101084327D135B3A00708D536F8021B94
S3150FE13A402046FFF7D1FFF0B9A41CAD1E19D0AF0880
S3150FE13A50FFF7A8FFBF003A4631462046FFF7DEFEE5
S3150FE13A608046FFF7A8FF3C197808B8F1000F06EB7F
S3150FE13A70400608D1E81B04D031882046FFF7B4FF92
S3150FE13A8008B9012000E00020BDE8F0810300002025
S3150FE13A9013F0030F09D0521E22BF13F8010B11F8D1
S3150FE13AA001CBB0EB0C00F3D07047121F22BF53F8D6
S3150FE13AB0040B51F804CB6045F7D0121D0AD200BAB8
S3150FE13AC09CFA8CFCB0EB0C0038BF6FF0000088BF9E
S3150FE13AD001207047521E22BF13F8010B11F801CBDB
S3150FE13AE0B0EB0C00F6D0521C08BF10467047000031
S3150FE13AF04EF68851CEF20001086840F47000086076
S3150FE13B00BFF34F8FBFF36F8F4FF00070E1EE100AE7
S3150FE13B10704700000120C046002801D000F008F8E8
S3150FE13B200020AFF30080FDF7DAF800F015F800009A
S3150FE13B3010B5074979441831064C7C44163404E034
S3150FE13B400A68081D114488470146A142F8D110BD04
S3150FE13B507C0000008C00000000F000B807463846F4
S3150FE13B6000F002F8FBE700002021090326311820B7
S3150FE13B70ABBEF9E700F04902C0EA210100000000FF
S3150FE13B8080B5FFF755FEFDF7F9F8BDE8014000F006
S3150FE13B9000B8AFF30080FFF7ABFFFFF7BBFF10B441
S3150FE13BA050F8041B79B10268436802440830DC0718
S3150FE13BB044BFA9F10104E31852F8044B43F8044B4F
S3150FE13BC0091FF9D1ECE710BC70470000D3FFFFFFE7
S3150FE13BD00C000000A0FFFFFF8000002000000000A6
S3090FE13BE000000000EB
S7050FE13B933C
