S0110000626F6F746C6F616465722E733337B8
S3150FE10800D01000205136E10FDF20E10F3530E10F37
S3150FE10810A727E10F632FE10F972FE10F00000000EC
S3150FE1082000000000000000004008E10FC335E10FB2
S3150FE10830E735E10F000000000336E10F3B36E10F2C
S3150FE1084007B0CD5E0100000000000001982F000007
S3150FE108500000000000001000F00010004936E10F23
S3150FE108604D36E10FD333E10F6F36E10F9D36E10FD1
S3150FE10870000000000A0A484000F0FF000821430883
S3150FE10880C00746BF034858401846491EF7D15040A6
S3150FE10890704700002083B8ED70B504460D4610464B
S3150FE108A0002604E00146A05DFFF7E4FF761CAE42A9
S3150FE108B0F8D370BD82B000EB40000021CDE9000115
S3150FE108C0DDE90001421E61F10003CDE900230022BB
S3150FE108D09142F5D19042F3D102B070471FB5264848
S3150FE108E0016841F4801101606C462448016841F0CA
S3150FE108F00101016000F054F84FF47A71B0FBF1F0A9
S3150FE109001F49800A48600FF288000FC884E80F007C
S3150FE109100A208DF8020069461A4800F07FF81FBDDC
S3150FE1092030B5194A164C1369656805FB00306080CE
S3150FE109309BB260889842AD41ED0F257011B11169F7
S3150FE109408142FCD101201060506030BD0C490F4847
S3150FE109500A78002A026803D0D20705D4002070472F
S3150FE10960D20701D5012070478069498888428041C5
S3150FE10970C043C00F7047000000400E40C0400E401C
S3150FE109804C14002000800140148001400C8001408E
S3150FE109900100000000000000000000000000000060
S3150FE109A00F4A1049136803F00703022B4FF4004077
S3150FE109B004D005D3042B04D003D301E0086800E08B
S3150FE109C04868D16EC1F30421491CB0FBF1F07047C1
S3150FE109D00548016841F470010160704700000000AD
S3150FE109E094400E40C400002088ED00E0074988429C
S3150FE109F01CBF0749884205D0064988421CBF0649F4
S3150FE10A00884201D1012070470020704700800140E4
S3150FE10A100084014000A0014000A401402DE9F84304
S3150FE10A2004460D46FFF7E2FF2878010004BF0221D5
S3150FE10A30616000216162697801B140216A7A02B190
S3150FE10A408022AB7A03B12023EE7A06B1102695F810
S3150FE10A50049095F805C095F80CE0EF7895F80280CB
S3150FE10A60B9F1000F18BF4FF40059BCF1000F18BFD1
S3150FE10A704FF0805CBEF1000F18BF4FF0080E3F0438
S3150FE10A8047EA0868AF7948EA8728EF792D7A48EA85
S3150FE10A9007273D43294311431943314349EA0101ED
S3150FE10AA04CEA01014EEA0101216008B101206060C3
S3150FE10AB0BDE8F18380B5AA48016841F48011016070
S3150FE10AC0A848016841F008010160016841F0200181
S3150FE10AD001600121A44800F09FF900F044F80123D9
S3150FE10AE0042200F069F801230122002100F065F8E4
S3150FE10AF001230122022100F060F8012301220321E3
S3150FE10B0000F05BF899480021816740F201420E211E
S3150FE10B1041670168114301604FF4402205214160AD
S3150FE10B204521C1604FF0E06191480160002101620A
S3150FE10B30C1624163C1668F490A6000228A604A60D9
S3150FE10B408D4A0A6300228A634A630FF26C22920886
S3150FE10B5092008A610121C163022088490860BDE8DC
S3150FE10B600140FFF7BBBE80B50023002200F024F859
S3150FE10B7000230022002100F020F8002300220221A9
S3150FE10B8000F01BF800230022032100F016F8774846
S3150FE10B9040F6AA61C16000210160416641F205019B
S3150FE10BA04160002181604161C16475498164002121
S3150FE10BB041678167C16701BD0121002000F07EB960
S3150FE10BC038B50D46322D044602D341F2031032BD3C
S3150FE10BD000F022F810B141F2061032BD694902E088
S3150FE10BE0225C0A54401CA842FAD34A6B681E60F392
S3150FE10BF00E124A6301F134008008634980000860F0
S3150FE10C0002206249086000F007F80028FBD00120B6
S3150FE10C1000F019F8002032BD5E485D490068800793
S3150FE10C200DD5332002465C4800680B68C0F30A1005
S3150FE10C30C3F301431818401C8242F3D17047086889
S3150FE10C40C0F30140704718B154490120086070475D
S3150FE10C50534901200860002165E05249002814BF7D
S3150FE10C6080204020086070474F48006840F201112C
S3150FE10C70884208BF002006D040F2022188420EBF0B
S3150FE10C8096204A49401A4A490968814201D1002012
S3150FE10C90704701D2401A7047C1F5967140187047F7
S3150FE10CA0F8B504460E4615467BB1069F1FB10021E6
S3150FE10CB03846FFF735FEFFF7D7FFB04205D2002FD3
S3150FE10CC0F9D0FFF743FE0028F5D0FFF7CDFFB0428D
S3150FE10CD002D2FFF7C9FF064600202849344A334BB3
S3150FE10CE003E00027176002270F60B0420ED21768A4
S3150FE10CF013F807C004F800C0401C7F1CB7F5967FB8
S3150FE10D001760EED0962FF0D10127EDE705B12860F8
S3150FE10D100020F2BD80B500210091012300220121BF
S3150FE10D20FFF7BEFF02BD1F4A224B20B1022018601A
S3150FE10D304FF48060106091B1012018600FF27801D5
S3150FE10D4012481B4B89088900C165002119604FF4D0
S3150FE10D5000611160012101600220084908607047B6
S3150FE10D6000400E40B0400E4000420400000001403A
S3150FE10D7000200E4080200E4001000C0008200E4698
S3150FE10D80F9FF010080000020C8200E403C200E40F4
S3150FE10D901000014020200E40BC200E407400014699
S3150FE10DA0740001440C00014094200E401012002003
S3150FE10DB05414002020200E44500910031C0001405A
S3150FE10DC010120020130000000900000000010000CE
S3150FE10DD00202000013000000500910031C0001403D
S3150FE10DE0A612002013000000090000000002000017
S3150FE10DF001010000D3FFFFFF890001EB401000F175
S3150FE10E00844002607047DFF874104A68D20702D453
S3150FE10E100A680242FCD1704770B502120C4602F025
S3150FE10E200F020021521E092ADFF8545014D8DFE8C9
S3150FE10E3002F005141313071619131C20DFF83850A7
S3150FE10E40C0F3043611B10846FFF7DDFF22463146FE
S3150FE10E502846BDE87040CFE770BD1035F0E7303575
S3150FE10E600121EDE738351021EAE740354FF48031BE
S3150FE10E70E6E7DFF81050E3E700400E4040410E4051
S3150FE10E80B0400E4050410E40890001EB401000F199
S3150FE10E9084400260704710B53024244B6043BDE8AF
S3150FE10EA010401844002207E010B530241F4B604371
S3150FE10EB0BDE81040184401220C30E5E7F8B50446C9
S3150FE10EC0164630000D461F4607D0002F204602D0AA
S3150FE10ED0FFF7EAFF01E0FFF7DEFF30210F221348AC
S3150FE10EE011FB04F1082D084405D2AB00416800F06F
S3150FE10EF015F8416006E0A5F108039B00816800F053
S3150FE10F000DF881604EB9002F2946204602D0BDE883
S3150FE10F10F440C9E7BDE8F440BDE7F1BD9A4021EAE7
S3150FE10F20020206FA03F111437047000000A00040E8
S3150FE10F30890001EB401000F184400260704789009F
S3150FE10F4001EB401000F18440006870473023DFF871
S3150FE10F505C24584310441C30F1E710B53024DFF818
S3150FE10F604C346043BDE810401844002208E010B548
S3150FE10F703024DFF838346043BDE8104018440122CD
S3150FE10F800C30D5E780B5DFF82804016841F480110C
S3150FE10F9001600123DFF81C04016841F008010160DB
S3150FE10FA0042200F044F9012302220B2100F040F95B
S3150FE10FB0DFF80404002101704170C170BDE8014002
S3150FE10FC0FFF778BD80B500F0D2F900F01EF9DFF832
S3150FE10FD0E803052101700022DFF8E0130A70092208
S3150FE10FE04A70A7228A7003220A6200214171C170F9
S3150FE10FF001210171002181708171816000F002FA96
S3150FE11000002002BD2DE9FC47DFF8AC53DFF8B063F2
S3150FE1101006F1D40206F18C0105F10C00002700F070
S3150FE110205EFBB946DFF89CA3DFF8904341F28838BF
S3150FE11030287805284ED8DFE800F0033E83183333CE
S3150FE1104040F20270DCE0822000E0C1202070A72090
S3150FE1105060700220206206E0042000F07AF902E0D7
S3150FE110601920FFF727FC032028702046216AFFF796
S3150FE11070A7FD50B900F0C9F8FFF7CEFD216A884206
S3150FE11080FAD200F0A5F90020287100F0BBF800288C
S3150FE11090FBD00020FFF7D7FDE878B0B10420287028
S3150FE110A000F0B0F80028FBD00A20FFF703FC00F0B0
S3150FE110B0ACF80120287000F0A5F80028FBD001203C
S3150FE110C0FFF7CBFDA87978B114E0687849EA000714
S3150FE110D001202870F8B20028AAD0B9F1000F00F06C
S3150FE110E0848040F204708BE000214FF47A7003E0C4
S3150FE110F00D2817D200214046FFF712FC00F082F8C7
S3150FE11100D0B100F034F9FFF721FCE97881F0010164
S3150FE111100842F3D0A868A979401C0029A860E7D155
S3150FE111203D28E2D318208AF800000120CAF82000F2
S3150FE11130E870814604202870287928B302202870A8
S3150FE111400020FFF78AFD01210020FFF7ECFD28794A
S3150FE11150002885D1F0780A283FF475AF0B283FF4C4
S3150FE1116074AFFD2818BFFE287FF476AFFD202070FF
S3150FE11170A720E07001202062304600F05CF8A070F5
S3150FE11180206A6070C01C65E7FF20F07002E0F01C7A
S3150FE11190FFF7C0FDF078FF28F9D000F019F9301DFF
S3150FE111A0FFF7B8FDF0783779FD2818BFFE2818D17B
S3150FE111B0862FA4BF012000F0CCF84FF4FA7000900F
S3150FE111C0012301AA791C701DFFF76AFD18B10220F0
S3150FE111D000F0BFF8B2E7019830440079A72802D1B1
S3150FE111E0ACE7A72FAAD00320F2E7A87810B140F217
S3150FE111F0057005E06878002814BF002040F20370FF
S3150FE11200BDE8F68703210020A0E60A210320A4E624
S3150FE1121080B5FFF7A8FC0023002200F008F8BDE82F
S3150FE112200050002300220B210320FFF747BE0A21BE
S3150FE112300320FFF743BEF0B5064683B03079614C24
S3150FE112405D4D012804BF717951291DD1E87870B13F
S3150FE11250266A5A4F32462146B81C00F073FEB91979
S3150FE11260A72088703E620020E870B878FEBD1A228A
S3150FE112700FF26411204600F075FE1A20206201205C
S3150FE11280E87068711A20FEBD697909B94D20FEBD76
S3150FE112907179012903D1852801D02620FEBD01A947
S3150FE112A0701D00F0B4F807469DF8040020709DF814
S3150FE112B00400062806D100F00BF960700020A0703B
S3150FE112C0032000E0012020620120E87097B140F68B
S3150FE112D001103F1A25D07F1E25D07F1E35D07F1EE8
S3150FE112E023D07F1E25D07F1E21D07F1E23D07F1EC8
S3150FE112F029D02CE0A8710020A86080230FF2F4001A
S3150FE11300314F009006F10802394605F10C0000F065
S3150FE113102FFAC0B1B878B0B9182020700120206239
S3150FE1132015E02420FEBD2320FEBD2220FEBD272091
S3150FE11330FEBD2520FEBD0120687000F0C9F8401CF6
S3150FE1134060701720FEBD1920FEBD2120FEBD1820BD
S3150FE11350FEBD19490A794AB9184A10700020507032
S3150FE11360A72090700320106201200871704780B5A5
S3150FE113700A211648FFF7E3FDB0B10B210320FFF772
S3150FE11380E5FD88B9FFF741FF0B210320FFF7DEFDEE
S3150FE113900028F9D00A20FFF78DFA00F019F8BDE819
S3150FE113A002401920FFF786BA01BD000000A00040F8
S3150FE113B000400E40B0400E403C130020E0130020E9
S3150FE113C0D010002004140020281400209CA0004017
S3150FE113D00A210320CBE500005201FFFF00000000C8
S3150FE113E000000000000000000000000000041809E2
S3150FE113F001000000000000007D33E10F0000000056
S3150FE11400000000003448002101704170704770B54B
S3150FE1141004460D462078012808D003284ED004282B
S3150FE1142047D0182818BF432848D04CE02A4E707889
S3150FE11430002860780CD1012805D170706078A17809
S3150FE114400818FF2815D01520287040F6041070BD36
S3150FE114503178884204D10620287040F6061070BD17
S3150FE11460491CC9B28842E9D01520287040F605100B
S3150FE1147070BD00228021E01C00F0B2FD04F1830271
S3150FE11480010A1378994204D01520287040F602100C
S3150FE1149070BD517800F0FF00884204D01520287006
S3150FE114A040F6011070BD607830700620287000207C
S3150FE114B070BD0620287040F6071070BD1820287001
S3150FE114C040F6081070BD1820287040F6031070BD65
S3150FE114D001480078704700005C14002030B59A424D
S3150FE114E03FBF9C1A456C2C19412C01D3002030BD0E
S3150FE114F0846C456C2C1904F03F0404448D5C257112
S3150FE11500521C446C641C9A424464F1D3012030BDF1
S3150FE1151070B5059D00240CE0866C064436790E55B0
S3150FE11520641C866C761C06F03F068664466C761E56
S3150FE115304664466C0EB1AC42EED3049805E0965D77
S3150FE115400E55641C1E68761C1E601E68864238BFE7
S3150FE11550AC42F4D3AC420CBF0120002070BD406C0D
S3150FE11560081870472DE9F0431646044683B03068F4
S3150FE115700F4699460B9DA9EB000100F0BDFCA84271
S3150FE1158008D232684B4639462046FFF7A7FF68B1C6
S3150FE11590002038E0DDF828800195CDF8009033463C
S3150FE115A03A4641462046FFF7B3FF20B91020207097
S3150FE115B041F2020027E004F1900729463A684046D6
S3150FE115C0FFF76AF938600C9820B1206D2A4641463B
S3150FE115D000F01EFD0D9838B1787978B1E06C2B46A5
S3150FE115E04246414600F038FD787938B1206EE16D1B
S3150FE115F028182066884224BF00207871A06D28182C
S3150FE11600A06541F20300BDE8FE832DE9F0410746EF
S3150FE1161007F1950486B0A078002814BF04250825A4
S3150FE11620002003900290019504A8009041F203086F
S3150FE116303846FFF797FF404549D120784C3738B107
S3150FE1164000F048F838682B4604AA04A900F004FD17
S3150FE116500C9EA17804A871B141789DF8102042EA59
S3150FE11660012149BA89B23160C178807840EA012017
S3150FE1167040BA80B218E08278C178120442EA016179
S3150FE11680427841EA02219DF81020114331609DF81D
S3150FE1169016209DF817100079120442EA01619DF8B0
S3150FE116A0152041EA022108437060207850B930686D
S3150FE116B0DFF8D81788421CBFDFF8D417884201D06C
S3150FE116C000F008F87068B8600020F860404606B090
S3150FE116D0BDE8F08178682A4604A900F099BCF8B50F
S3150FE116E00446002004F144072070386078600D4607
S3150FE116F004F194000021017041708170C1704FF0C7
S3150FE11700FF30F86439627962B9621646FF22182111
S3150FE1171004F1700000F0B0FCFF22042104F188000F
S3150FE1172000F0AAFCFF22042104F18C0000F0A4FCD6
S3150FE11730BD60FE600020C04640B10020C04610B932
S3150FE117400020C04610B11020207007E00020C046EF
S3150FE1175000B11DB10020C04618B116B941F20B0018
S3150FE11760F2BD16B1F86800F049FC0020F2BD0000A9
S3150FE117702DE9F24F98B004460020049008A8DDF851
S3150FE1178088B0079090469A4604F14C0541F2030959
S3150FE1179008AE11E000F0C9FB484552D100F090FBCD
S3150FE117A041EA000700F09CFB00B13FBAAF61E86880
S3150FE117B00428EFD3092020700498504580F0618307
S3150FE117C020781028F8D8DFE810F013003900F4007C
S3150FE117D04101BA01F0019E01F0011200F001120080
S3150FE117E0B702590319032F0334035903E4E7DEE77D
S3150FE117F00020C04650B198F8010098F8001051EA60
S3150FE11800002003D104F194010120C87000F06CFBB4
S3150FE11810484516D10698DFF87C16A8600020E860E7
S3150FE118200598884208BF0220C5D0002840F0AF8155
S3150FE1183000F056FB002840D00320BCE700F054FB34
S3150FE11840484540F01F8304F19400807820B1059854
S3150FE11850DFF83C1688423FE094F8940000283DD02B
S3150FE1186004F194004078C8BB0598DFF82816884242
S3150FE118701CBFDFF8241688421FD0DFF820168842F6
S3150FE118801CBFDFF81C16884217D0DFF80016884216
S3150FE1189000F08180DFF80C16884213D0DFF80816C6
S3150FE118A088420DD0DFF8E815884212D0DFF8FC1533
S3150FE118B088421CBFDFF8F815884200F0688140E0E6
S3150FE118C00D2078E70E202070A86828610020686156
S3150FE118D072E70020C04600285BD12BE000F000FB49
S3150FE118E00028059830D040F2FE21401A24D04FF25D
S3150FE118F00A31401A08D040F2FC51401A0ED0FF3897
S3150FE1190007D0FE3818D01CE0DFF8940505900720C4
S3150FE1191051E7DFF8980505900A204CE7DFF87005E7
S3150FE1192005900020C046002802BF04F194004078DC
S3150FE1193000282ED10B203EE7DFF87405059008202D
S3150FE1194039E71020207031E0DFF84C1588421AD0C4
S3150FE11950DFF84815884214D0DFF844158842D6D00F
S3150FE11960DFF82815884210D0DFF824158842D8D041
S3150FE11970DFF838158842CFD0DFF834158842DED04C
S3150FE119800BE0042017E7062015E704F194004078F1
S3150FE11990002840F0FC800F200DE71020207004F1A5
S3150FE119A09400407810B141F204006BE241F2080075
S3150FE119B068E2E868082880F05F8200F0AFFA082055
S3150FE119C000F09DFA4845F3D1F0780006B0F1407F7B
S3150FE119D051D17079317941EA0027F80703D5012012
S3150FE119E084F8940002E00020C04628B90020C046E2
S3150FE119F00028DED0F805DCD41020207041F20A0071
S3150FE11A0040E2F078B17841EA002040BA80B24EF276
S3150FE11A1050318842BDD1B179F079090441EA0060CC
S3150FE11A20717940EA01203179084300BAA861B17AA8
S3150FE11A30F07A090441EA0060717A40EA0120317ACD
S3150FE11A40084300BAE8614FF0FF302862E8680C28D6
S3150FE11A5038D200F063FA0C2000F051FA48450ED166
S3150FE11A6070789DF8201041EA002040BA00F47F40DB
S3150FE11A70B0F5007FC5D01020207041F2090001E2D8
S3150FE11A80296AFF20FEF7F6FE01462962FF20FEF7DF
S3150FE11A90F1FE28620146B078FEF7ECFE28620146B8
S3150FE11AA0F078FEF7E7FE2862DBF804C0BCF1000F21
S3150FE11AB008D0DBF80030A869042208A9E047A86935
S3150FE11AC0001DA861E868A968884215D20498AAEBB7
S3150FE11AD0000100F011FA042876D3E868A0F10C07AB
S3150FE11AE000F023FA4845CAD1102FC9D02A6A04213A
S3150FE11AF008A8FEF7D1FED6E7E969286AC943884205
S3150FE11B0000F0BA8125E1A868E968814250D20190D7
S3150FE11B10012108A8039102910090534604AA00F00F
S3150FE11B20F9F9484537D118981C2208A9083000F071
S3150FE11B3019FA189901204870E5E705202070E86841
S3150FE11B400828BFF439AE01200390029053460820CE
S3150FE11B5000F0DCF948451ED11899D64A01200870E4
S3150FE11B6000F0AEF9084318994860D3480068016858
S3150FE11B709142E2D1B279F179C068120442EA016188
S3150FE11B80727941EA0221327911438142D5D010208F
S3150FE11B90207041F2010075E1DBF80030E8693A4661
S3150FE11BA008A9E047E8693818E861A868E968814259
S3150FE11BB080F06281471A0498042FAAEB00012046B0
S3150FE11BC04FD3FFF7CCFC04284FD30498AAEB0000C0
S3150FE11BD00090412F014628BF402700F08DF9B8420A
S3150FE11BE003D2009900F088F90746042F24BFBF08F6
S3150FE11BF0BF00012003900290019708A80090534679
S3150FE11C0004AA00F087F94845C5D12078072804D101
S3150FE11C10DBF808C0BCF1000FBED1C7F10400042FF9
S3150FE11C20009007D2014608A8FF22C01900F024FA56
S3150FE11C300098C719207809285AD1DBF80410002932
S3150FE11C4056D000F04DFAA969001D7B1883422DD3BA
S3150FE11C5000F11802914229D2884234BF00910090D7
S3150FE11C600AE0FFF77CFCB842AFD2049A53464146ED
S3150FE11C702046FFF733FC04E1934234BF019301920F
S3150FE11C80009A009B511A08AA11440291181A019958
S3150FE11C90009A8A1A02992044703000F053F901989C
S3150FE11CA00099411A0298FF2200F0E6F900F01CFABA
S3150FE11CB0A969001D884222BF7A18031D9A420BD3E8
S3150FE11CC0079A8018401A00900146042204F1880011
S3150FE11CD000F038F900F0FFF8DBF80030A869DBF81F
S3150FE11CE004C03A4608A9E047A8693818A8615CE735
S3150FE11CF00528FCD1DBF80C000028F8D0286A052866
S3150FE11D000ED2391807290BD30799091D081A009026
S3150FE11D100146042204F18C0000F014F900F0DBF81F
S3150FE11D20DBF80030286ADBF80CC03A4608A9E04731
S3150FE11D30286A3818286238E7002003900290534644
S3150FE11D40042000F0E3F8484507D1686C5B49884207
S3150FE11D5004D01020207041F2050093E00020C04628
S3150FE11D6018B918990120C87003E01898C0780028AF
S3150FE11D703ED0286A98B100F0B3F880B9DBF80C8051
S3150FE11D805FEA08000BD0042204F18C0108A800F0E9
S3150FE11D90D9F8DBF80030042208A90420C047A86966
S3150FE11DA000281CBFDBF80400002821D0182204F11B
S3150FE11DB0700108A800F0C6F800F092F9DBF80030E0
S3150FE11DC0DBF80480182208A9001DC04700F08CF942
S3150FE11DD005000DD0042204F1880108A800F0B2F83D
S3150FE11DE0DBF80030DBF80480042208A9281DC04780
S3150FE11DF01899012088700C20207042E0E8681028BD
S3150FE11E003AD200F08BF8102000F079F8484539D135
S3150FE11E1000F07EF98021009001910123286809AA3B
S3150FE11E20022100F0FAF8E9E704F194010120487084
S3150FE11E3022E004F194008078F0B9039002905346C2
S3150FE11E40402000F063F848451CD1686800F0E2F8DD
S3150FE11E50686810AA08A900F063F938B1189900204B
S3150FE11E60C8701020207041F206000BE0189901208E
S3150FE11E70C87004F19401887001209CE441F20700D7
S3150FE11E8000E0002019B0BDE8F08F0000F70A0AF76D
S3150FE11E90FC0404FCEB17A603F40A0AF4F50909F5A9
S3150FE11EA0F60808F6F90707F9FA0606FAFD0303FD40
S3150FE11EB0FE0101FEAD1007B02800E10FE320BBDE06
S3150FE11EC0B178F078090441EA0060717840EA0120BF
S3150FE11ED09DF8201070470098FF22042100F0CCB83E
S3150FE11EE004F19400C078704705A80090534604AA00
S3150FE11EF041462046FFF789BB2046FFF730BB0190ED
S3150FE11F00414608A800902046FFF72CBB019004AA92
S3150FE11F1008A8009041462046FFF724BB0020039016
S3150FE11F2053460120029004AA7047012003900290C4
S3150FE11F3053460420019004AA08A800904146204682
S3150FE11F40FFF710BB62B38B0708D0521E11F8013BA6
S3150FE11F5000F8013B00F024808B07F6D1830740F0B0
S3150FE11F60208000BF103A07D330B4B1E83810103AE9
S3150FE11F70A0E83810F9D230BC530724BFB1E80810F6
S3150FE11F80A0E8081044BF51F8043B40F8043BD207E0
S3150FE11F9024BF31F8022B20F8022B44BF0B780370D4
S3150FE11FA07047083A07D3B1E80810083A40F8043BFE
S3150FE11FB040F804CBF7D25307E4E70A46090241EAB0
S3150FE11FC012214840C0F30311484080EA0030410135
S3150FE11FD00206C9B2D20E41EA0221484080B27047E9
S3150FE11FE070B504460D461046002604E00146A05D95
S3150FE11FF0FFF7E3FF761CAE42F8D370BD10B504468A
S3150FE1200000F00CF92046BDE81040002100F009B9B7
S3150FE1201000F06FB9014600F0A3B9F8B505460E46D3
S3150FE1202017461C4600F0E8FA079A0699284600F08B
S3150FE12030E6FA05F124000021016006750C22394606
S3150FE1204005F13900FFF77EFF05F14500210C01701F
S3150FE120508470210A4170F1BD10B584B01C4601911F
S3150FE12060029200F12801009100F1380300F12402F8
S3150FE12070214600F00BFB1FBD62F30F2262F31F42F5
S3150FE12080401810F0030308D0C91A1FD3DB0748BF66
S3150FE1209000F8012D28BF20F8022D130030B41446A5
S3150FE120A01546103928BF20E93C00FAD8490728BF61
S3150FE120B020E90C0048BF40F8042D890028BF20F81D
S3150FE120C0022D48BF00F8012D30BC7047C91818BF63
S3150FE120D000F8012DCB0728BF00F8012D7047FEE769
S3150FE120E006480068006970470548064A00680168B6
S3150FE120F0914201D100697047002070472808E10F2E
S3150FE121002800E10FAD1007B002487047024870474B
S3150FE12110024870474A43E00F6A43E00F8642E00FF9
S3150FE1212070B504000D4618BF002DA2B0164600D0BB
S3150FE1213016B940F2016023E001211248FEF76CFE69
S3150FE12140402111A800F02CFBFFF7DEFF014611A895
S3150FE1215000F097FDFFF7DAFF014619A800F091FDB0
S3150FE12160294601A800F08DFD314609A800F089FD49
S3150FE1217001A8009011AB20222146034800F090FD03
S3150FE1218022B070BD0005080000000F4010B54A6887
S3150FE121908B68CC680968016002600360046010BD5A
S3150FE121A010B502680368046800680A608C604B60CA
S3150FE121B0C86010BD38B504460D46FFF7F1FF05F1CE
S3150FE121C010012046BDE83440EAE738B504460D462E
S3150FE121D0FFF7DCFF05F110012046FFF7D7FF05F109
S3150FE121E020012046FFF7D2FF05F130012046BDE879
S3150FE121F03440CBE710B50C4614F0030188B008D094
S3150FE122006946FFF7D7FF202269462046FFF79AFE78
S3150FE1221002E02146FFF7CEFF08B010BD6C2100F0BA
S3150FE12220BFBA79B9734A0260734A4260734A8260F0
S3150FE12230734AC260734A0261734A4261734A8261A9
S3150FE12240734A0EE0734A0260734A4260734A8260D0
S3150FE12250734AC260734A0261734A4261734A826189
S3150FE12260734AC261816600220262426200207047B0
S3150FE122702DE9F0416F4E90B0044630686E4FDFF8AE
S3150FE12280BC8140F0010030600D466D486D4901603B
S3150FE12290416821F4406141601021016300214163EE
S3150FE122A0694901656949416538462146FFF76EFF80
S3150FE122B004F110013846FFF769FF15F0030009D065
S3150FE122C0402229466846FFF73DFE69464046FFF73D
S3150FE122D07CFF03E029464046FFF777FF2146384664
S3150FE122E0FFF768FF306840084000306010B0BDE886
S3150FE122F0F0812DE9F041160004460D462ED0206AF5
S3150FE1230000F03F073018B042C7F14008206202D211
S3150FE12310606A401C6062B7B1464514D3E019424684
S3150FE123202830FFF70FFE04F128012046FFF7A0FF43
S3150FE123304544A6EB0806002705E029462046FFF7A8
S3150FE1234097FF4035403E402EF7D23EB13246294601
S3150FE12350E019BDE8F0412830FFF7F4BDBDE8F081A3
S3150FE123607CB504460D46616A206A324EC90041EAE0
S3150FE1237050718DF80310C0000B0C8DF801300A0E69
S3150FE123800B0A010E8DF804108DF80700010C8DF87C
S3150FE1239005108DF80020010A8DF802308DF8061030
S3150FE123A094F820000FF2AC0100F03F00382834BF5B
S3150FE123B0C0F13802C0F178022046FFF79AFF0822F2
S3150FE123C069462046FFF795FF306840F0010030601F
S3150FE123D029461F48FFF70EFF30684008400030607E
S3150FE123E0A06E20B1042105F11C0000F0B7FD73BD0D
S3150FE123F00000000067E6096A85AE67BB72F36E3CC3
S3150FE124003AF54FA57F520E518C68059BABD9831FC9
S3150FE1241019CDE05BD89E05C107D57C3617DD703047
S3150FE1242039590EF7310BC0FF11155868A78FF964AB
S3150FE12430A44FFABEB0400E4000010F40A4010F4079
S3150FE1244000000F40040010307081C872070D0100C3
S3150FE1245030010F4080000000000000000000000086
S3150FE124600000000000000000000000000000000076
S3150FE124700000000000000000000000000000000066
S3150FE124800000000000000000000000000000000056
S3150FE124900000000010B54A688B68CC6809680160D6
S3150FE124A002600360046010BD10B50268036804683A
S3150FE124B000680A608C604B60C86010BD38B5044691
S3150FE124C00D46FFF7E7FF05F110012046BDE8344061
S3150FE124D0E0E71FB5044611F0030008D01022684665
S3150FE124E0FFF730FD69462046FFF7D4FF1FBD2046B3
S3150FE124F0FFF7D0FF1FBD1FB50C4614F0030108D03F
S3150FE125006946FFF7D1FF102269462046FFF71AFD0C
S3150FE125101FBD2146FFF7C8FF1FBD80B501688029A2
S3150FE1252003D0B1F5807F0FD012E0DFF8442201210D
S3150FE1253011604268DFF83C120A6082680A60C2687D
S3150FE125400A600069086001E000F026F8002002BD8C
S3150FE125506FF01F0002BD38B50168DFF81842DFF8EA
S3150FE125601852802903D0B1F5807F0DD011E0DFF845
S3150FE125700022012111604168216081682160C168F3
S3150FE1258021600069206001E000F006F8E5620020B5
S3150FE1259032BD6FF01F0032BDDFF8E021012111607E
S3150FE125A0011DDFF8DC0189E72DE9F0470709DFF8BF
S3150FE125B0D4411020A062089D099E884691469A460D
S3150FE125C014E02EB127B9102249463046FFF7BAFC7F
S3150FE125D049464046FFF77DFF4FF4007020602946DC
S3150FE125E05046FFF788FF103509F110093846471EA7
S3150FE125F00028E6D1BDE8F087242100F0D1B880B5F7
S3150FE12600802A18BFB2F5807F00D0A1E7FFE740F837
S3150FE12610042BD208FFF796FC002002BD2DE9F84303
S3150FE12620DFF86461DFF86471DFF864918046306842
S3150FE1263040F001003060144600203860786038635E
S3150FE1264001291D46786309D100F01DF84046FFF7D1
S3150FE1265064FF5FEA00080FD1052008E04046FFF767
S3150FE126607AFF5FEA000807D100F00DF80620B8609F
S3150FE1267029464846FFF73FFF306840084000306083
S3150FE126804046BDE8F2832146484622E72DE9F04F61
S3150FE1269083B08946DDF834A00E9C19F00F0F804602
S3150FE126A015461E4604D1002D1CBF2868002828D0E8
S3150FE126B02F68DDF830B01DE097B95B463246012150
S3150FE126C04046FFF7ABFF10203118321811F8011C05
S3150FE126D0491C02F8011CC9B211B9401E0128F3DAEF
S3150FE126E01AF8010B1BF80710484004F8010B781C88
S3150FE126F000F00F075FEA0900A0F10109DCD12F60B5
S3150FE1270032E0214D214F286840F00100286000207A
S3150FE1271038607860386378634046FFF7FEFE5FEA1C
S3150FE1272000081CD11249DFF86CB04FF44040086045
S3150FE127301249086031465846FFF7CBFE1748144B4E
S3150FE12740154938655246512078650020019000946D
S3150FE127504846FFF729FF31465846FFF7CCFE286872
S3150FE127604008400028604046BDE8FE8F00000000AB
S3150FE1277000000F4424000F40058C010000000F46B6
S3150FE1278010010F4008000F40B0400E4000000F400F
S3150FE1279080000F4084000F4088000F404805460334
S3150FE127A0002200F0DFBBFEE710B54A688B68CC6804
S3150FE127B00968016002600360046010BD10B502682C
S3150FE127C00368046800680A608C604B60C86010BDDE
S3150FE127D038B504460D46FFF7E7FF05F11001204630
S3150FE127E0BDE83440E0E738B504460D46FFF7E6FFAE
S3150FE127F005F110012046BDE83440DFE78C220FF2E8
S3150FE12800D06150430844007A70478C220FF2C061C1
S3150FE1281050430844407A704710B500F010F8BDE810
S3150FE12820104000F10C0106E010B500F008F8BDE824
S3150FE12830104000F12C0120221846FFF783BB0B460F
S3150FE128408C240FF28C6160430844704738B5044617
S3150FE128504FF48470154600F03EF94FF48670294621
S3150FE1286000F039F9DFF8CC05206501206065606974
S3150FE12870000E00F0010080F0010032BD2DE9F047B6
S3150FE1288000F0EFF888B091469A4608F1400100F062
S3150FE12890E6F84FF486702518494600F0DBF84FF459
S3150FE128A08870261809F120013046FFF791FFDFF80E
S3150FE128B088052065414600F0DCF900F0CDF84FF4CC
S3150FE128C0847004EB000908F120014846FFF780FF09
S3150FE128D008F140013046FFF77BFFDFF86005206521
S3150FE128E00AF14001DFF8580560650120A0654FF454
S3150FE128F0807026183046FFF776FF69464846FFF7A0
S3150FE1290072FF00F0A6F8DFF83C05206508F120011B
S3150FE12910DFF834056065DFF8340500F09DF8DFF880
S3150FE12920300520655146DFF82C0560650120A0656D
S3150FE129304846FFF758FF69463846FFF749FFDFF884
S3150FE12940180520650AF12001DFF810056065012001
S3150FE12950A0653046FFF747FF08B0BDE8F0872DE9E0
S3150FE12960F04700F07EF898B0914608F1200100F0AB
S3150FE1297076F8DFF8C404206508A9DFF8E40460659A
S3150FE12980DFF8E004A06500F09BFA00F062F8DFF8EB
S3150FE12990D804206510A9DFF8D40460654FF486707A
S3150FE129A0A06526183046FFF71EFF694600F08BFA41
S3150FE129B008F1400100F053F8DFF8B4042065414611
S3150FE129C0012060654FF4847004EB000A00F07EFA93
S3150FE129D0DFF8A00420656946DFF89C046065DFF83F
S3150FE129E09C04A0650120E0655046FFF7F1FE10A9B2
S3150FE129F03046FFF7EDFEDFF8880420654946DFF83C
S3150FE12A0084046065DFF88004A0654FF48870204484
S3150FE12A10FFF7E9FE08F1200100F021F808F1400186
S3150FE12A2000F054FA08A93046FFF7D2FEDFF85C044E
S3150FE12A30206509F14001DFF8580460652846FFF784
S3150FE12A40D2FE09F120013046FFF7CDFE18B0BDE801
S3150FE12A50F08741462846BBE6A0650120E06538468A
S3150FE12A60B6E604464FF48270884627187047F8B5E4
S3150FE12A7004460E461D46174620212846FFF790FECF
S3150FE12A800120286039464FF4807000F024F84FF4A6
S3150FE12A908270314600F01FF84FF4847026182946EC
S3150FE12AA03046FFF795FEDFF8EC0320650BE0DFF824
S3150FE12AB0E8032065DFF8E4036065DFF8E403A0656A
S3150FE12AC0DFF8E003E0656069C001F0D529463046DD
S3150FE12AD0BDE8F44087E620447AE650F8043B93429A
S3150FE12AE003D007E050F8042B22B9091F0129F9DABF
S3150FE12AF001207047002070472DE9F04188B0044668
S3150FE12B000E461546984620216846FFF749FE0120F5
S3150FE12B10009020210E9F3846FFF742FE202107F154
S3150FE12B202000FFF73DFE202107F14000FFF738FEB9
S3150FE12B303046FFF763FE00F0A0F800F095F88C2120
S3150FE12B400FF28C3011FB06F108444068461E00E097
S3150FE12B50761E012E16DB00F03EF8F9D512E02022A3
S3150FE12B6029463846FFF7FEF9202205F1200107F144
S3150FE12B702000FFF7F7F92022694607F14000FFF73A
S3150FE12B80F1F9761E002E23D43A4639462046FFF751
S3150FE12B90E6FE00F020F8F4D5002220213846FFF7B3
S3150FE12BA09CFF70B10022202107F12000FFF795FF6E
S3150FE12BB038B10022202107F14000FFF78EFF0028F0
S3150FE12BC0CDD13B462A4639462046FFF757FED8E791
S3150FE12BD008B0BDE8F081301106EBD060401158F82E
S3150FE12BE02010A6EB4010C140C8077047F0B5044668
S3150FE12BF00F4691B015461E463846FFF7FFFD00F02A
S3150FE12C003CF800F031F869463846FFF705FE08ABA8
S3150FE12C106A4605F140012046FFF729FF4FF482701E
S3150FE12C2008A92044FFF7D4FD4FF4867027182946EB
S3150FE12C30FFF715FF4FF4887005F12001FFF74BFF02
S3150FE12C407D48206506F1200100F013F8A06501200B
S3150FE12C50E0654FF480702044FFF7C5FD31463846F5
S3150FE12C60FFF7C1FD11B0F0BD002020602063606366
S3150FE12C7070478D4860658D4870470146204600F0E4
S3150FE12C808BB938B50D4604462021FFF789FDFFE7DD
S3150FE12C901F204242295C2244401ED177F9D531BD2E
S3150FE12CA02DE9F0470F00984618BFB8F1000FBAB0FB
S3150FE12CB00446154603D0429E0EB1012D02DA40F2CB
S3150FE12CC00160B4E0FFF7D0FF606840F0100060608C
S3150FE12CD00020FFF79AFDFFF7D0FF606820F4406010
S3150FE12CE040F40060606009A9606820F4407040F428
S3150FE12CF0007060600020FFF797FD09AA3146204674
S3150FE12D00FFF7A4FD30B909AA06F120012046FFF726
S3150FE12D109DFD10B140F2026089E0212DA8BF20256B
S3150FE12D20202111A8FFF73CFD002014E02A1A521EBC
S3150FE12D3001A99208A5F1010C01EB8201ACEB000CA4
S3150FE12D403B5C0A6C4FEACC0C0CF0180C03FA0CF353
S3150FE12D501A430A64401CA842E8DB4FF48470271833
S3150FE12D6011A93846FFF734FD5148206511A900F046
S3150FE12D70A7F819AB09AA06F120012046FFF777FE5E
S3150FE12D804FF4827019A92044FFF722FD4FF48870A2
S3150FE12D9004EB000911A94846FFF71AFD4FF48670B7
S3150FE12DA004EB000A00F091F84248206511A9424868
S3150FE12DB060654846FFF717FD19A900F084F821A8C9
S3150FE12DC0009011AB0FF2541200212046FFF794FE4B
S3150FE12DD001A8009019AB424600212046FFF78CFE71
S3150FE12DE021AB21AA00212046FFF700FF01AB21AA63
S3150FE12DF001A92046FFF742FD01AB01AA00212046BA
S3150FE12E00FFF7F4FE0020FFF700FDFFF736FF01A9FC
S3150FE12E103846FFF7DDFC00F058F8284820652148D1
S3150FE12E2060656069C0014CBF002040F204603AB0B2
S3150FE12E30BDE8F0873035DA108AD11C81D01482CB08
S3150FE12E401481E11C8CE11C811C84D91C8391D11C5A
S3150FE12E50E014D8141482E11C84D31482D11CE0143B
S3150FE12E60821CC00C0C0C0100C00C0C83D91C83D83E
S3150FE12E708AD11C83DA0C811482D11C81C80C0C8196
S3150FE12E808CE11CD01484E31482D11C01D81483D1B4
S3150FE12E901CC00C0139398401D02484FC1C82FED874
S3150FE12EA08B1C81A039380100D91C83D11C81E11C0F
S3150FE12EB030D00C0130E11C8430D91C013035DA14E5
S3150FE12EC04FF48070251828468DE4314650467FE44D
S3150FE12ED02000000000010000050C0000FFFFFFFFCE
S3150FE12EE0FFFFFFFFFFFFFFFF0000000000000000F4
S3150FE12EF00000000001000000FFFFFFFF512563FC0A
S3150FE12F00C2CAB9F3849E17A7ADFAE6BCFFFFFFFF6E
S3150FE12F10FFFFFFFF00000000FFFFFFFF96C298D8FB
S3150FE12F204539A1F4A033EB2D817D0377F240A463FC
S3150FE12F30E5E6BCF847422CE1F2D1176BF551BF3705
S3150FE12F406840B6CBCE5E316B5733CE2B169E0F7CD8
S3150FE12F504AEBE78E9B7F1AFEE242E34F0022FFF731
S3150FE12F608FB8FEE700B500BF1300964694461039B9
S3150FE12F7028BFA0E80C50FAD85FEA417C28BF0CC005
S3150FE12F8048BF40F8042BC90728BF20F8022B48BFDA
S3150FE12F9000F8012B00BDFEE742685209042941EA18
S3150FE12FA0421209D9491F022908D9C91E032903D992
S3150FE12FB0091F022902D970474260704742F010019A
S3150FE12FC04160704738B5174C206840F00800206023
S3150FE12FD00123042200F02AF8002001E00098401CAA
S3150FE12FE0009000986428F9DB0123022200F01EF815
S3150FE12FF0002001E00098401C00900098B0F5FA7FA0
S3150FE13000F8DB09480068012814BF012500250123D3
S3150FE13010002200F00BF8206820F008002060284617
S3150FE1302032BD0000B0400E40982114420621052022
S3150FE13030FDF744BF4FF4017000F09EF800BF3F4823
S3150FE130403F49006808603F493F480068000E08D1D4
S3150FE130504AF6E852CA624A6B42F004024A63002218
S3150FE13060CA62022803DA086840F40050086037485C
S3150FE13070016821F4401141F4881101603448016877
S3150FE1308041F48071016040213248C1600168490312
S3150FE13090FCD40020C04600F06AF8FDF773FFFDF798
S3150FE130A091FF88B9FDF7AEFF0446FEF7B1F840F29E
S3150FE130B001205CB140F205718C420EBF40F2032054
S3150FE130C040F203718C4201D04FF4017000F054F8D5
S3150FE130D000BF000010B5204801680124B1F5803F1B
S3150FE130E011D0006840050AD500F068F840F20221D8
S3150FE130F0401A07D0C01E05D0C01E012802D9FFF71E
S3150FE1310061FF00B100240420006810F1010F06D120
S3150FE13110BDE810404FF4027000F022B810BD002C4C
S3150FE13120FCD00E490020086000221046016881F3A9
S3150FE13130088881F3098840688746FEE7C8000020C2
S3150FE131405814002064310E40FC81E00F20400E4000
S3150FE1315000000E4004300E4004500E4008ED00E032
S3150FE131604FF0005108804FF20F00488070470F492A
S3150FE131704CF23C30088070474FF0005108804FF217
S3150FE131800F0048800A48016821F4E06141F480614B
S3150FE131900160BFF34F8F0748074A016801F4E06109
S3150FE131A011430160BFF34F8F00BFFDE7020000201F
S3150FE131B000500E400CED00E00400FA054FF0005010
S3150FE131C04FF20F024188914201D1008870470029E1
S3150FE131D003BF0088012840F202204FF400707047C8
S3150FE131E06449654A01E021B1491E1369DB07FAD447
S3150FE131F001B9B0E0506001201060106910F0060FC0
S3150FE1320005D0410700D5A9E0800700D5A9E0002048
S3150FE132107047F0B513460022002936D0554C564D6E
S3150FE132208BB98B4231D250F8046BEE605B1C0826EA
S3150FE132302E60264601E036B3761E2F69FF07FAD4D4
S3150FE13240002EEED11FE0EFF3108672B600230EE0EB
S3150FE132502F6907F01907102F08BF2F602F693F0756
S3150FE13260F6D550F8047BEF605B1C10272F608B427D
S3150FE13270F4D306B962B6264601E026B1761E286971
S3150FE13280C007FAD40EB96FF002021046F0BD2DE970
S3150FE13290F0479A46354B364F1C681B683B688046AC
S3150FE132A0002043F001033B60950881460C4602E09E
S3150FE132B0B14404EB8604A94517D208EB89063046DB
S3150FE132C0FFF78EFF010014D1C6F30A00C0F50060C7
S3150FE132D08608A5EB0900B04238BF0646524631468D
S3150FE132E02046FFF796FF0100E2D039684908490009
S3150FE132F03960BDE8F0871D491E4A0B6809681C490C
S3150FE133000B6843F001030B60886001204860486950
S3150FE13310400704D508684008400008601EE0486988
S3150FE13320800704D5086840084000086019E00220CC
S3150FE13330486001E022B1521E4869C007FAD422B9AA
S3150FE13340086840084000086005E00868400840004A
S3150FE133500860002070476FF0020070474FF0FF30B2
S3150FE1336070476FF001007047002390E704300E407D
S3150FE1337008000E40809698000C000E402DE9F041B2
S3150FE133800446374800688846016916468C4222BFD3
S3150FE1339037194069B84216D3E00AB4EBC02004BF2F
S3150FE133A0204600F07DF804F50060C50AED0204E061
S3150FE133B0284600F075F805F50065BD42F8D33246AB
S3150FE133C04146204601E0BDE8F081BDE8F04100F05D
S3150FE133D091B8F0B59FB0044668460FF28C01102202
S3150FE133E0FEF7C0FD22686068616B02F16042B2F5DB
S3150FE133F0003F1BD81A4E32681269904216D3194D07
S3150FE13400A84213D202F1400081420F460ED3A942E0
S3150FE134100CD210226946384600F0A2F800B9BF690E
S3150FE1342030680069874201D3AF4201D3002013E030
S3150FE1343004A8FEF7E3FD3A1B214604A8FEF7E8FDD3
S3150FE1344004A8FEF7E7FD07F12002394604A8FEF7C7
S3150FE1345067FE401E8041C00F1FB0F0BD00000000A7
S3150FE134602808E10F0100100013B779FAC925DDB776
S3150FE13470ADF3CFE0F1B614B8084841F67131816387
S3150FE134800168490849000160704704480168490825
S3150FE1349049000160002181637047000008000E407A
S3150FE134A010B50446FFF7E8FF2046FFF724FF044671
S3150FE134B0FFF7EBFF601E8041C00F10BD10B584080A
S3150FE134C0800782B005D5080440F47F4040F0FF0045
S3150FE134D003E041F07F4040F47F000090FFF7CCFF1F
S3150FE134E004226946A000FFF73FFF0446FFF7CDFF31
S3150FE134F0204616BD2DE9F04104460E46154604F069
S3150FE13500010005F00101084327D135B3A00708D51E
S3150FE1351036F8021B2046FFF7D1FFF0B9A41CAD1E0A
S3150FE1352019D0AF08FFF7A8FFBF003A46314620464C
S3150FE13530FFF71AFF8046FFF7A8FF3C197808B8F1A5
S3150FE13540000F06EB400608D1E81B04D03188204670
S3150FE13550FFF7B4FF08B9012000E00020BDE8F081D4
S3150FE135600300002013F0030F09D0521E22BF13F8F8
S3150FE13570010B11F801CBB0EB0C00F3D07047121F22
S3150FE1358022BF53F8040B51F804CB6045F7D0121D57
S3150FE135900AD200BA9CFA8CFCB0EB0C0038BF6FF084
S3150FE135A0000088BF01207047521E22BF13F8010B9E
S3150FE135B011F801CBB0EB0C00F6D0521C08BF104648
S3150FE135C07047FEE74EF68851CEF20001086840F4E7
S3150FE135D070000860BFF34F8FBFF36F8F4FF000702E
S3150FE135E0E1EE100A7047FEE70120C046002801D040
S3150FE135F000F008F80020AFF30080FFF720FD00F0A0
S3150FE1360015F8FEE710B5074979441831064C7C44A5
S3150FE13610163404E00A68081D114488470146A142A1
S3150FE13620F8D110BD300100004C01000000F000B8E8
S3150FE136300746384600F002F8FBE7FEE720210903CB
S3150FE1364026311820ABBEF9E70020704700207047FE
S3150FE1365080B5FDF7BDF9FFF73DFDBDE8014000F08F
S3150FE1366000B8AFF30080FFF7ADFFFFF7BDFF10B571
S3150FE13670B1F5C07F044602D240F2052010BD4FF4EA
S3150FE13680C071FFF78DF84FF48270221804F1BC0177
S3150FE1369004F12400BDE81040FEF721B810B582B061
S3150FE136A00446009104F124002146FEF761F8002853
S3150FE136B01CBF41F207018842C4F87C010CD1A01C62
S3150FE136C0017839B14078002814BF40F2032040F267
S3150FE136D0022016BD40F2012016BD19E050F8041B79
S3150FE136E0CB0744BFA9F101035918121F0023042A7E
S3150FE136F041F8043BF9D25FEA827C0B4604D54FF0E1
S3150FE13700000CA1F800C09B1CD10744BF0021197022
S3150FE1371050F8042B002AE1D1704730B501684268B1
S3150FE137208468014401EB5203D20748BF4C449942E6
S3150FE1373001D10C3030BD11F9012B11F8015B002AD3
S3150FE1374004F8015B02D5521CF9D1F0E7521EF4D50C
S3150FE13750EDE7000087FFFFFF90030000D010002088
S3150FE1376000000000B7FFFFFF0C0000003200000071
S3150FE1377080000020CC000BF07F1030800000203459
S3150FE13780000140FB0006F04902C0EA2101000000FA
S3090FE13790000000003F
S7050FE1366371
