S02B000066697273745F73746167655F62746C5F6566723332786731322F52656C656173652F6578652F6669F6
S3150FE100000F4880F308880F4800470000A505E10F68
S3150FE10010A505E10FA505E10FA505E10FA505E10F82
S3150FE10020A505E10FA505E10FC005E10FA505E10F57
S3150FE10030A505E10FA505E10FA505E10FA505E10F62
S3150FE10040007C00205905E10F10B5054C237833B933
S3150FE10050044B13B10448AFF300800123237010BDA5
S3150FE100601001002000000000D405E10F084B10B588
S3150FE100701BB108490848AFF300800848036803B984
S3150FE1008010BD074B002BFBD0BDE81040184700BF52
S3150FE100900000000014010020D405E10F0C0100203F
S3150FE100A000000000034AD2F8883043F47003C2F827
S3150FE100B08830704700ED00E010B5104B1049CC6960
S3150FE100C00F4AE40702D593B1013BF8E77BB1012370
S3150FE100D01061D360D36913F006000DD05A0709D426
S3150FE100E013F0020F0CBF00206FF0010010BD6FF08F
S3150FE100F0020010BD4FF0FF3010BD00BF8096980093
S3150FE1010000000E40F0B509B90020F0BD8AB91D4CCB
S3150FE10110082550F82230A3611B4BE5600132E669F1
S3150FE10120F60702D55BB3013BF9E743B39142F0D151
S3150FE10130EAE7EFF3108672B6124A002396461546A2
S3150FE101401027D469240707D4D46904F01904102CB5
S3150FE1015008BFCEF80C40F4E750F82340AC61013309
S3150FE101609942EF60EDD106B962B6074B054AD169FF
S3150FE10170C90702D51BB1013BF9E7002BC4D16FF0DB
S3150FE101800200F0BD00000E40809698002DE9F8437D
S3150FE101909846184B0D46596817495B688B6843F0CB
S3150FE101A0010307468B6096084FF00009B14519D256
S3150FE101B007EB89042046FFF77FFFC8B9C4F30A04AA
S3150FE101C0C4F50064A408C9EB06039C4228BF1C468C
S3150FE101D0424621462846FFF795FF20B9A14405EB94
S3150FE101E08405E3E70020044A936823F00103936053
S3150FE101F0BDE8F88300300E4000000E401C4B5A68F4
S3150FE102005B681C4B9A6842F0010210B59A600122B5
S3150FE102101861DA60DA69510706D59A6822F00102A8
S3150FE102209A604FF0FF3010BDDA69920706D59A68EA
S3150FE1023022F001029A606FF0010010BD0222DA602E
S3150FE102400D4AD8690B4910F001000C4602D012B1E4
S3150FE10250013AF6E732B9A36823F00103A3606FF021
S3150FE10260020010BD8B6823F001038B6010BD00BF48
S3150FE1027000300E4000000E40809698000023FFF7F5
S3150FE1028085BF000008B5094B1A68094B1A60094B7F
S3150FE1029040221A615A685203FCD400F069F800282B
S3150FE102A0FBD040F2022000F08DF800BF00010020E4
S3150FE102B02C01002000300E4008B500F0A3F80D4BDD
S3150FE102C05B68B3F5803F09D040F20923984202D02B
S3150FE102D0B0F5007F02D100F013F850B9064B074A8B
S3150FE102E093601A6882F3088882F309885B689847F6
S3150FE102F0FEE708BD00500E400008E10F00ED00E0FB
S3150FE10300174B1B68186970B5846ADE68B44201D26F
S3150FE10310002070BD06F510439C42F9D20444A41B9C
S3150FE10320104B22689A42F3D14FF0FF32E16800F0A9
S3150FE1033005F90D4B98420546EAD10C4BA1681B68AE
S3150FE103409A68914209D84FF0FF32D968304600F0EA
S3150FE10350F5F8401B18BF012070BD012070BD00BF2D
S3150FE103602800E10F07B0CD5EE320BBDE2808E10FE1
S3150FE10370F8B5114B1B681F69DC68BB6A3B441D1B53
S3150FE103802646EA68A3189E4205D2304600F083F866
S3150FE1039006F50066F5E73946204600F087F8074B84
S3150FE103A01B684FF0FF32D968204600F0C7F8044BBF
S3150FE103B0C31A58425841F8BD2800E10F2808E10F4A
S3150FE103C0E320BBDE4FF000534FF20F025A800A4A89
S3150FE103D01880136823F4E06343F480631360BFF37B
S3150FE103E04F8F0649064BCA6802F4E0621343CB60AE
S3150FE103F0BFF34F8F00BFFDE700500E4000ED00E069
S3150FE104000400FA054FF000534FF20F015A888A4262
S3150FE1041001D1188870473AB91B88012B40F20220A7
S3150FE1042018BF4FF4007070474FF40070704700002B
S3150FE10430044B41F671321A649A6822F001029A600E
S3150FE10440704700BF00000E40034B9A6822F001028D
S3150FE104509A6000221A64704700000E4007B5034602
S3150FE104609B0745BF09046FEA11416FEA01416FEA44
S3150FE10470014158BF6FEA1141019120F00300FFF7E7
S3150FE10480D7FF04220DEB0201FFF7F8FEFFF7DCFFC2
S3150FE1049003B05DF804FB08B5FFF7CAFFFFF7AEFE41
S3150FE104A0FFF7D2FFB0FA80F0400908BDF8B540EA90
S3150FE104B002031446DA0705460E4601D50020F8BDBC
S3150FE104C0002CFBD083070AD50988FFF7C7FF002861
S3150FE104D0F4D1023C01D10120F8BD0235023624F0F8
S3150FE104E00307FFF7A5FF3A4631462846FFF7C6FE53
S3150FE104F0FFF7AAFF0028E1D1A742ECD0F15B78190B
S3150FE10500FFF7ACFFB0FA80F04009F8BD484010B5EF
S3150FE10510C0B20C0A082310F0010F4FEA500218BFC0
S3150FE10520054803F1FF3314BF5040104613F0FF03A4
S3150FE10530F1D1604010BD00BF2083B8ED38B5044658
S3150FE105404518AC4206D0114614F8010BFFF7DEFF52
S3150FE105500246F6E7104638BD0B4880470B48804701
S3150FE105600B490C4A0C4B9A42BEBF51F8040B42F8A9
S3150FE10570040BF8E709490A4A00209142BCBF41F84A
S3150FE10580040BFAE7FFF77EFEA500E10FB902E10FD3
S3150FE10590D805E10F00010020100100201001002015
S3150FE105A030010020FEE700BFF8B500BFF8BC08BC7C
S3150FE105B09E467047F8B500BFF8BC08BC9E4670472B
S3150FE105C0AD1007B001000000000000010008E10FC7
S30D0FE105D00080000000000000AD
S3150FE105D8C0EA21016D00E10F4900E10F00000000BB
S7050FE10559AC
