S02B000066697273745F73746167655F62746C5F65667233327867312F52656C656173652F6578652F666972B6
S31500000000007C0020C5050000110600001106000056
S31500000010110600001106000011060000110600007E
S315000000201106000011060000480600001106000037
S31500000030110600001106000011060000110600005E
S3150000004010B5054C237833B9044B13B10448AFF30C
S3150000005000800123237010BD100100200000000065
S315000000605C060000084B10B51BB108490848AFF301
S3150000007000800848036803B910BD074B002BFBD06E
S31500000080BDE81040184700BF000000001401002022
S315000000905C0600000C01002000000000034AD2F8B4
S315000000A0883043F47003C2F88830704700ED00E0F2
S315000000B0FEE7000010B5104B1049CC690F4AE40763
S315000000C002D593B1013BF8E77BB101231061D36000
S315000000D0D36913F006000DD05A0709D413F0020FA6
S315000000E00CBF00206FF0010010BD6FF0020010BDC4
S315000000F04FF0FF3010BD00BF8096980000000E4004
S31500000100F8B505460C4609B90020F8BD284BEAB9F2
S315000001101A68284B9A4204D840F2C9112648FFF7BC
S31500000120C7FF26490023082055F823208A61244A60
S31500000130C8600133CE69F60703D5002A35D0013AE7
S31500000140F8E7002A31D09C42EED1DDE71A681D4B54
S315000001509A4204D840F205211748FFF7A9FFEFF3AA
S31500000160108672B6154A0023964610461027D169A6
S31500000170090707D4D16901F01901102908BFCEF883
S315000001800C10F4E755F82310816101339C42C760D7
S31500000190EDD106B962B60A4B084AD169C90702D53C
S315000001A01BB1013BF9E7002BAED16FF00200F8BDA1
S315000001B02C0100203F420F002C06000000000E40DC
S315000001C0809698007F9FD5002DE9F0471546820757
S315000001D007468846994604D04FF420712448FFF715
S315000001E067FFAB0704D040F285212148FFF760FF87
S315000001F0204A9368AD0843F00103936006D11C487A
S3150000020040F29321FFF754FF28461BE0C246002622
S3150000021007EB86042046FFF74DFF30BBC4F30A0404
S31500000220C4F50064A408AB1B9C4228BF1C464A4682
S3150000023021465046FFF764FF20B92644B5420AEB33
S31500000240840AE5D83A68D8F800309A4208D0384689
S31500000250FFF730FF20B94A4601214046FFF750FF1D
S31500000260044A936823F001039360BDE8F08700BF5A
S315000002702C06000000000E40C0F30A0310B5044629
S3150000028023B14FF441711C48FFF712FF1B4B9A68CC
S3150000029042F001029A6001221C61DA60DA695107B4
S315000002A006D59A6822F001029A604FF0FF3010BD21
S315000002B0DA69920706D59A6822F001029A606FF011
S315000002C0010010BD0222DA600D4AD8690B4910F010
S315000002D001000C4602D012B1013AF6E732B9A36822
S315000002E023F00103A3606FF0020010BD8B6823F0BA
S315000002F001038B6010BD00BF2C06000000000E40FD
S31500000300809698000023FFF75FBF000008B5064BF4
S315000003101A68064B1A6000F063F80028FBD040F21A
S31500000320022000F085F800BF000100202C0100200B
S3150000033008B500F09DF80E4B5B68B3F5803F09D019
S3150000034040F20923984202D0B0F5007F02D100F0B6
S3150000035013F858B94FF40063064A93601A6882F39B
S31500000360088882F309885B689847FEE708BD00BFE6
S3150000037000500E4000ED00E0282370B51B68186998
S31500000380DE68846AB44201D2002070BD06F560536F
S315000003909C42F9D20444A41B0F4B22689A42F3D123
S315000003A04FF0FF32E16800F0FFF80C4B984205462B
S315000003B0EAD140F62803A1681B689A68914209D8D9
S315000003C04FF0FF32D968304600F0EEF8401B18BFF8
S315000003D0012070BD012070BD07B0CD5EE320BBDEFD
S315000003E0F8B528231B681F69DC68BB6A3B441D1BE4
S315000003F02646EA68A3189E4205D2304600F081F8E8
S3150000040006F50066F5E73946204600F085F840F621
S3150000041028034FF0FF321B682046D96800F0C4F865
S31500000420024BC31A58425841F8BD00BFE320BBDE59
S315000004304FF000534FF20F025A800A4A1880136891
S3150000044023F4E06343F480631360BFF34F8F0649E0
S31500000450064BCA6802F4E0621343CB60BFF34F8FCA
S3150000046000BFFDE700500E4000ED00E00400FA0575
S315000004704FF000534FF20F015A888A4201D1188873
S3150000048070473AB91B88012B40F2022018BF4FF47F
S31500000490007070474FF4007070470000044B41F63F
S315000004A071321A649A6822F001029A60704700BF9E
S315000004B000000E40034B9A6822F001029A60002267
S315000004C01A64704700000E4007B503469B0745BFF8
S315000004D009046FEA11416FEA01416FEA014158BF11
S315000004E06FEA1141019120F00300FFF7D7FF0422C4
S315000004F00DEB0201FFF706FFFFF7DCFF03B05DF827
S3150000050004FB08B5FFF7CAFFFFF7B6FEFFF7D2FFF9
S31500000510B0FA80F0400908BDF8B540EA0203144677
S31500000520DA0705460E4601D50020F8BD002CFBD0A3
S3150000053083070AD50988FFF7C7FF0028F4D1023CD4
S3150000054001D10120F8BD0235023624F00307FFF77A
S31500000550A5FF3A4631462846FFF7D4FEFFF7AAFF25
S315000005600028E1D1A742ECD0F15B7819FFF7ACFF88
S31500000570B0FA80F04009F8BD484010B5C0B20C0A88
S31500000580082310F0010F4FEA500218BF054803F187
S31500000590FF3314BF5040104613F0FF03F1D1604003
S315000005A010BD00BF2083B8ED38B504464518AC42EF
S315000005B006D0114614F8010BFFF7DEFF0246F6E7F8
S315000005C0104638BD0B4880470B4880470B490C4AFC
S315000005D00C4B9A42BEBF51F8040B42F8040BF8E7E5
S315000005E009490A4A00209142BCBF41F8040BFAE7C8
S315000005F0FFF78CFE9D00000031030000600600003E
S315000006000001002010010020100100203001002010
S31500000610FEE700BFF8B500BFF8BC08BC9E467047B1
S31500000620F8B500BFF8BC08BC9E4670472E2E2F2E8C
S315000006302E2F2E2E2F656D6C69622F7372632F65B8
S315000006406D5F6D73632E6300AD1007B0010000008F
S31500000650000000010008000000800000000000000B
S31500000660C0EA210165000000410000000000000012
S705000005C530
